:0400000058EF06F0BF
:100600000057656C636F6D6520746F2050494320FF
:1006100053657269616C2050726F6772616D6D69AC
:100620006E67206279204578706C6F7265456D62E7
:0906300065646465640A0D0000B4
:10063A002E0E406E000E416E2CC03CF02DC03DF0D7
:10064A0089D13CC0F6FF3DC0F7FF0800F5CF3EF068
:10065A00250E3E18D8A479D13C4A3D2A3CC0F6FF63
:10066A003DC0F7FF0800F5CF3EF02F0E3E641CD0C8
:10067A003A0E3E6019D0000E3F6E0FD03F500A0D61
:10068A00F3503E24D00F3F6E3C4A3D2A3CC0F6FF51
:10069A003DC0F7FF0800F5CF3EF02F0E3E6426D18D
:1006AA00390E3E64EBD722D13F6820D140C0D9FF32
:1006BA0041C0DAFFDF503E6E020E4026000E412294
:1006CA003E5051EC06F044D140C0D9FF41C0DAFF98
:1006DA00DECF34F0DDCF35F0020E4026000E412287
:1006EA0035AE07D0346C351ED8B0352A2D0E51ECF4
:1006FA0006F034C00EF035C00FF0000E0FBEFF0E2C
:10070A00106E116E3FC012F00A0EB9EC04F020D13F
:10071A0040C0D9FF41C0DAFFDECF30F0DECF31F082
:10072A00DECF32F0DECF33F0040E4026000E412237
:10073A0033AE0BD0331E321E311E306C000E312206
:10074A00322233222D0E51EC06F030C00EF031C0A9
:10075A000FF032C010F033C011F03FC012F00A0E91
:10076A00B9EC04F0F5D040C0D9FF41C0DAFFDECFC2
:10077A003AF0DDCF3BF0020E4026000E41223AC08D
:10078A000EF03BC00FF0106A116A3FC012F00A0E59
:10079A00B9EC04F0DDD040C0D9FF41C0DAFFDECFAA
:1007AA0036F0DECF37F0DECF38F0DECF39F0040E88
:1007BA004026000E412236C00EF037C00FF038C076
:1007CA0010F039C011F03FC012F00A0EB9EC04F073
:1007DA00BFD040C0D9FF41C0DAFFDECF3AF0DDCF4B
:1007EA003BF0020E4026000E41223AC00EF03BC0FA
:1007FA000FF0106A116A3FC012F0100EB9EC04F043
:10080A00A7D040C0D9FF41C0DAFFDECF36F0DECF35
:10081A0037F0DECF38F0DECF39F0040E4026000E76
:10082A00412236C00EF037C00FF038C010F039C080
:10083A0011F03FC012F0100EB9EC04F089D040C09C
:10084A00D9FF41C0DAFFDECF3AF0DDCF3BF0020E2E
:10085A004026000E41223F28D8A402D0100E3F6E37
:10086A003AC00EF03BC00FF0106A116A3FC012F096
:10087A00020EB9EC04F06CD040C0D9FF41C0DAFFD7
:10088A00DECF36F0DECF37F0DECF38F0DECF39F00C
:10089A00040E4026000E41223F28D8A402D0200E82
:1008AA003F6E36C00EF037C00FF038C010F039C0B6
:1008BA0011F03FC012F0020EB9EC04F049D040C06A
:1008CA00D9FF41C0DAFFDECF2EF0DDCF2FF0020EC6
:1008DA004026000E41222EC002F02FC003F01DEC6C
:1008EA0006F036D0250E51EC06F032D03E50250ADD
:1008FA00D8B4F8D7670AD8B4BFD7010AD8B4D6D6BD
:10090A00070AD8B405D7020AD8B422D0150AD8B42F
:10091A00D6D7060AD8B43FD70D0AD8B472D73A0A3E
:10092A00D8B48DD7010AD8B4C1D6070AD8B4CCD660
:10093A00020AD8B40DD0150AD8B4C1D7060AD8B459
:10094A0012D70D0AD8B445D703D03E5051EC06F061
:10095A003C4A3D2A3CC0F6FF3DC0F7FF0800F5506F
:10096A000009D8B412006DD62A6E000E2B6E020E44
:10097A002A18D8B434D037D012C013F0FF0E132679
:10098A00010E146E000E156E132A03D0D890143679
:10099A001536132EFBD714C016F015C017F0000E2B
:1009AA0017BEFF0E186E196E0E5016141A6E0F50DF
:1009BA0017141B6E105018141C6E115019141D6E4A
:1009CA001A501B101C101D10D8B402D0010E01D0F1
:1009DA00000E2B6E2B50300F51EC06F012061250FF
:1009EA00D8B41200C9D70E500F1010101110D8A485
:1009FA0004D0300E51EC06F01200000E2B6E4DD0D2
:100A0A000E500F1010101110D8B435D02B50010D04
:100A1A001E0EF324D96E000EF420DA6E0EC001F019
:100A2A000FC002F010C003F011C004F02A50056E86
:100A3A00066A076A086AA1EC05F001502A02F35017
:100A4A0000080E24DF6E0EC001F00FC002F010C0C5
:100A5A0003F011C004F02A50056E066A076A086A94
:100A6A00A1EC05F001C00EF002C00FF003C010F0B7
:100A7A0004C011F011D01228D8B45AD00A0E126448
:100A8A0001D056D02B50010D1E0EF324D96E000E44
:100A9A00F420DA6E000EDF6E2B2A12502B5CD8B0CF
:100AAA0047D0AED7FF0E136EFF0E146E2B50156E85
:100ABA00166A13501526145016221E0E1524D96EC6
:100ACA00000E1620DA6E0A0EDF6015D0FF0E136EC6
:100ADA00FF0E146E2B50156E166A135015261450FD
:100AEA0016221E0E1524D96E000E1620DA6EDF505D
:100AFA00176E300E14D0FF0E136EFF0E146E2B50AD
:100B0A00156E166A13501526145016221E0E152439
:100B1A00D96E000E1620DA6EDF50176E370E1724C4
:100B2A00286E296A000E2922285051EC06F02B065D
:100B3A002B50D8B41200B6D7000E096E000E0A6EFA
:100B4A00000E0B6E000E0C6E0550061007100810F2
:100B5A00D8B42AD0010E0D6E06D0D89005360636C6
:100B6A00073608360D2A08AEF8D7D89009360A365D
:100B7A000B360C360550015C0650025807500358D4
:100B8A0008500458D8A009D00550015E0650025AF0
:100B9A000750035A0850045A0980D890083207327D
:100BAA00063205320D2EE1D709C001F00AC002F063
:100BBA000BC003F00CC004F012001150101006E133
:100BCA00600E0E5C090E0F58D8A02DD011502BE1E3
:100BDA000E04C20E0F58010E1058D8B024D0000EC1
:100BEA00016E2D0E026E310E036E010E046E0EC0E2
:100BFA0012F00FC013F010C014F011C015F0060E59
:100C0A00D8901236133614361536E82EF9D712C094
:100C1A0005F013C006F014C007F015C008F0A1ECE7
:100C2A0005F0010401D01F0E166E16C0AFFF1200A8
:100C3A0009D002C0D9FF03C0DAFFDF5051EC06F039
:100C4A00024A032A02C0D9FF03C0DAFFDF50D8B430
:100C5A001200EFD7800E176E250E186E000E196E51
:100C6A00000E1A6E40EC06F0010E2C6E060E2D6E6A
:100C7A001DEC03F0F9D7800E946E200EAC6E900E28
:100C8A00AB6E17C00EF018C00FF019C010F01AC0E2
:100C9A0011F0E2EC05F01200016E9EA8FED79E98B4
:100CAA0001C0ADFF1200000EF86E00012FEF06F032
:020000040020DA
:08000000FFFFFFFFFFFFFFFF00
:020000040030CA
:0E000000FF02111EFF8180FF0FC00FE00F40B6
:00000001FF
