:040000005FEF06F0B8
:10060000004578706C6F726520456D626564646545
:1006100064004C636420342D626974204D6F6465FE
:100620000000156E1538E8461F0B146E1550070BA9
:10063000156E96D01150D8B40DD015C012F0010E21
:10064000136E122A02D0D8901336122EFCD71350F4
:100650008912120015C012F0010E136E122A02D078
:10066000D8901336122EFCD71350FF0A89161200A9
:100670001150D8B40DD015C012F0010E136E122A0D
:1006800002D0D8901336122EFCD713508A121200C3
:1006900015C012F0010E136E122A02D0D890133634
:1006A000122EFCD71350FF0A8A1612001150D8B42C
:1006B0000DD015C012F0010E136E122A02D0D89080
:1006C0001336122EFCD713508B12120015C012F0E5
:1006D000010E136E122A02D0D8901336122EFCD7B8
:1006E0001350FF0A8B1612001150D8B40DD015C04C
:1006F00012F0010E136E122A02D0D8901336122E69
:10070000FCD713508C12120015C012F0010E136E9C
:10071000122A02D0D8901336122EFCD71350FF0A9B
:100720008C1612001150D8B40DD015C012F0010E65
:10073000136E122A02D0D8901336122EFCD7135003
:100740008D12120015C012F0010E136E122A02D083
:10075000D8901336122EFCD71350FF0A8D161200B4
:100760001450000AD8B466D7010AD8B481D7030A56
:10077000D8B49CD7010AD8B4B7D7070AD8A41200B6
:10078000D1D7156E1538E8461F0B146E1550070BA0
:10079000156E96D01150D8B40DD015C012F0010EC0
:1007A000136E122A02D0D8901336122EFCD7135093
:1007B0009212120015C012F0010E136E122A02D00E
:1007C000D8901336122EFCD71350FF0A921612003F
:1007D0001150D8B40DD015C012F0010E136E122AAC
:1007E00002D0D8901336122EFCD713509312120059
:1007F00015C012F0010E136E122A02D0D8901336D3
:10080000122EFCD71350FF0A931612001150D8B4C1
:100810000DD015C012F0010E136E122A02D0D8901E
:100820001336122EFCD713509412120015C012F07A
:10083000010E136E122A02D0D8901336122EFCD756
:100840001350FF0A941612001150D8B40DD015C0E1
:1008500012F0010E136E122A02D0D8901336122E07
:10086000FCD713509512120015C012F0010E136E32
:10087000122A02D0D8901336122EFCD71350FF0A3A
:10088000951612001150D8B40DD015C012F0010EFB
:10089000136E122A02D0D8901336122EFCD71350A2
:1008A0009612120015C012F0010E136E122A02D019
:1008B000D8901336122EFCD71350FF0A961612004A
:1008C0001450000AD8B466D7010AD8B481D7030AF5
:1008D000D8B49CD7010AD8B4B7D7070AD8A4120055
:1008E000D1D7156E000E146E1538E8461F0B136E27
:1008F0001550070B156E4CD015C011F0010E126E7D
:10090000112A02D0D8901236112EFCD71250801422
:100910000009D8B43BD029D0146E4AD015C011F0CC
:10092000010E126E112A02D0D8901236112EFCD769
:100930001250811428D015C011F0010E126E112A28
:1009400002D0D8901236112EFCD7125082141BD030
:1009500015C011F0010E126E112A02D0D890123675
:10096000112EFCD7125083140ED0010ED5D715C00E
:1009700011F0010E126E112A02D0D8901236112EEB
:10098000FCD7125084140009D8A4EFD7000EC4D7A6
:100990001350000AD8B4B0D7010AD8B4BFD7030A9D
:1009A000D8B4C9D7010AD8B4D3D7070AD8B4DFD787
:1009B00014501200206E20C004F016C005F017C0BD
:1009C00006F018C007F019C008F01AC009F01BC0E3
:1009D0000AF01CC00BF01DC00CF01EC00DF01FC0B3
:1009E0000EF01828D8B409D01928D8B406D01A287F
:1009F000D8B403D01B28D8A403D0040E036E16D09D
:100A0000080E036E000E116E1850C1EC03F0000EBC
:100A1000116E1950C1EC03F0000E116E1A50C1ECAA
:100A200003F0000E116E1B50C1EC03F0000E116EAE
:100A30002050C1EC03F0000E116E1650C1EC03F013
:100A4000000E116E1750C1EC03F0000E116E1C5019
:100A5000C1EC03F0000E116E1D50C1EC03F0000E4E
:100A6000116E1E50C1EC03F0000E116E1F50C1EC50
:100A700003F012000528D8B44CD0010E116E0E50B0
:100A8000C1EC03F0000E116E045011EC03F0010EE6
:100A9000116E055011EC03F0000E116E065011ECB2
:100AA00003F0000E126E0A0E116E43EC07F0010EF9
:100AB000116E065011EC03F0000E126E0A0E116E4C
:100AC00043EC07F00E5071EC04F0166E040E0318A0
:100AD000D8A416D0000E116E065011EC03F0000ED3
:100AE000126E0A0E116E43EC07F0010E116E0650E5
:100AF00011EC03F0000E126E0A0E116E43EC07F0BB
:100B00001650D8A4C9D7000E116E0E50C1EC03F0D8
:100B10001200000E146E010E136E34EC07F012007A
:100B20001A6E19C002F01AC001F0020E1A6408D041
:100B300019500F0B900F236E19500F0BD00F246E0E
:100B4000000E146E640E136E34EC07F0080E0318DA
:100B5000D8A404D0380EC9EC06F009D0040E03184E
:100B6000D8A405D0BDEC05F0280EC9EC06F00E0E99
:100B7000C9EC06F04CEC07F01200300E39EC06F030
:100B800095EC06F0000E146E640E136E34EC07F054
:100B9000300E39EC06F095EC06F0000E126EC80E21
:100BA000116E43EC07F0300E39EC06F095EC06F0D0
:100BB000000E126EC80E116E43EC07F0200E39ECD9
:100BC00006F095EC06F0000E126EC80E116E43ECA6
:100BD00007F01200090E166E0A0E176EFF0E186E41
:100BE000FF0E196EFF0E1A6EFF0E1B6E0C0E1C6EA2
:100BF0000D0E1D6E0E0E1E6E0F0E1F6E080EDAEC21
:100C000004F0100E196E020E90EC05F0010E196E34
:100C1000060E1A6EF7EC06F0120E196E060E1A6E1C
:100C2000F7EC06F0FFD7166E16A002D0010E01D029
:100C3000000E116E075011EC03F016A202D0010E47
:100C400001D0000E116E085011EC03F016A402D072
:100C5000010E01D0000E116E095011EC03F016A622
:100C600002D0010E01D0000E116E0A5011EC03F0FB
:100C70001200166E16A802D0010E01D0000E116EE1
:100C80000B5011EC03F016AA02D0010E01D0000E99
:100C9000116E0C5011EC03F016AC02D0010E01D015
:100CA000000E116E0D5011EC03F016AE02D0010EC5
:100CB00001D0000E116E0E5011EC03F0120000EE88
:100CC00001F0100EEE6AE806FDE1A60EF66E0E0EBD
:100CD000F76E000EF86E00EE21F010EE04F0090041
:100CE000F5CFEEFFE550E150FAE1000EF86E00019D
:100CF000EAEF05F0010E116E045011EC03F0000E46
:100D0000116E055011EC03F0010E116E065011EC3E
:100D100003F0000E126E0A0E116E43EC07F0000E87
:100D2000116E065011EC03F01200000E116E04500B
:100D300011EC03F0000E116E055011EC03F0010EE2
:100D4000116E065011EC03F0000E126E0A0E116EB9
:100D500043EC07F0000E116E065011EC03F0120088
:100D6000176E3AEC05F0080E0318D8A404D01750FB
:100D700013EC06F008D0175039EC06F07AEC06F0C8
:100D80001738F00B176E175039EC06F07AEC06F0B6
:100D90001200176E3AEC05F0080E0318D8A404D020
:100DA000175013EC06F008D0175039EC06F095EC0C
:100DB00006F01738F00B176E175039EC06F095EC6B
:100DC00006F01200186E0150185CD8B01200000E28
:100DD0000F6E18C010F01850010D210EF324D96EBB
:100DE000000EF420DA6EDF50C9EC06F012000AD0D3
:100DF00019C0F6FF1AC0F7FF0800F55021EC07F004
:100E0000194A1A2A19C0F6FF1AC0F7FF0800F55050
:100E10000009D8B41200ECD7102A000E0F6E015052
:100E2000105CD8A002D0000E106E1050010D210EE3
:100E3000F324D96E000EF420DA6EDF50C9EC06F010
:100E40001200186E02500F5CD8B003D00A0E1818AA
:100E5000D8B40CEC07F00A0E1818D8B412001850C9
:100E6000B0EC06F00F2A120009D0010E126E5E0ED1
:100E7000116E43EC07F01306D8A01406135014109B
:100E8000D8B41200F2D703D01106D8A01206115020
:100E90001210D8B41200F8D7010EC9EC06F0000EFB
:0A0EA000E2EC06F0120080C090D0D2
:020000040020DA
:08000000FFFFFFFFFFFFFFFF00
:020000040030CA
:0E000000FF02111EFF8180FF0FC00FE00F40B6
:00000001FF
