:040000007BEF06F09C
:1006000000414443302056616C75653A25346420BE
:100610000A0D00002E0E426E000E436E2CC03EF0FE
:100620002DC03FF089D13EC0F6FF3FC0F7FF080064
:10063000F5CF40F0250E4018D8A479D13E4A3F2A84
:100640003EC0F6FF3FC0F7FF0800F5CF40F02F0E89
:1006500040641CD03A0E406019D0000E416E0FD09D
:1006600041500A0DF3504024D00F416E3E4A3F2ABC
:100670003EC0F6FF3FC0F7FF0800F5CF40F02F0E59
:10068000406426D1390E4064EBD722D1416820D195
:1006900042C0D9FF43C0DAFFDF50406E020E42264F
:1006A000000E432240506DEC06F044D142C0D9FF09
:1006B00043C0DAFFDECF36F0DDCF37F0020E422640
:1006C000000E432237AE07D0366C371ED8B0372A1B
:1006D0002D0E6DEC06F036C00EF037C00FF0000E98
:1006E0000FBEFF0E106E116E41C012F00A0EA6EC86
:1006F00004F020D142C0D9FF43C0DAFFDECF32F090
:10070000DECF33F0DECF34F0DECF35F0040E4226FC
:10071000000E432235AE0BD0351E341E331E326C14
:10072000000E3322342235222D0E6DEC06F032C03D
:100730000EF033C00FF034C010F035C011F041C0DE
:1007400012F00A0EA6EC04F0F5D042C0D9FF43C067
:10075000DAFFDECF3CF0DDCF3DF0020E4226000E88
:1007600043223CC00EF03DC00FF0106A116A41C038
:1007700012F00A0EA6EC04F0DDD042C0D9FF43C04F
:10078000DAFFDECF38F0DECF39F0DECF3AF0DECF61
:100790003BF0040E4226000E432238C00EF039C052
:1007A0000FF03AC010F03BC011F041C012F00A0E39
:1007B000A6EC04F0BFD042C0D9FF43C0DAFFDECFC1
:1007C0003CF0DDCF3DF0020E4226000E43223CC03D
:1007D0000EF03DC00FF0106A116A41C012F0100E09
:1007E000A6EC04F0A7D042C0D9FF43C0DAFFDECFA9
:1007F00038F0DECF39F0DECF3AF0DECF3BF0040E3A
:100800004226000E432238C00EF039C00FF03AC025
:1008100010F03BC011F041C012F0100EA6EC04F035
:1008200089D042C0D9FF43C0DAFFDECF3CF0DDCF34
:100830003DF0020E4226000E43224128D8A402D0E9
:10084000100E416E3CC00EF03DC00FF0106A116AF0
:1008500041C012F0020EA6EC04F06CD042C0D9FFE9
:1008600043C0DAFFDECF38F0DECF39F0DECF3AF02A
:10087000DECF3BF0040E4226000E43224128D8A4CE
:1008800002D0200E416E38C00EF039C00FF03AC0D1
:1008900010F03BC011F041C012F0020EA6EC04F0C3
:1008A00049D042C0D9FF43C0DAFFDECF30F0DDCF00
:1008B00031F0020E4226000E432230C002F031C059
:1008C00003F041EC06F036D0250E6DEC06F032D088
:1008D0004050250AD8B4F8D7670AD8B4BFD7010A60
:1008E000D8B4D6D6070AD8B405D7020AD8B422D0CD
:1008F000150AD8B4D6D7060AD8B43FD70D0AD8B44B
:1009000072D73A0AD8B48DD7010AD8B4C1D6070A2B
:10091000D8B4CCD6020AD8B40DD0150AD8B4C1D7F1
:10092000060AD8B412D70D0AD8B445D703D0405020
:100930006DEC06F03E4A3F2A3EC0F6FF3FC0F7FF8F
:100940000800F5500009D8B412006DD62A6E000ECA
:100950002B6E020E2A18D8B434D037D012C013F040
:10096000FF0E1326010E146E000E156E132A03D00F
:10097000D89014361536132EFBD714C016F015C0B8
:1009800017F0000E17BEFF0E186E196E0E501614DB
:100990001A6E0F5017141B6E105018141C6E115045
:1009A00019141D6E1A501B101C101D10D8B402D043
:1009B000010E01D0000E2B6E2B50300F6DEC06F0A7
:1009C00012061250D8B41200C9D70E500F101010D2
:1009D0001110D8A404D0300E6DEC06F01200000EF9
:1009E0002B6E4DD00E500F1010101110D8B435D002
:1009F0002B50010D1E0EF324D96E000EF420DA6E7A
:100A00000EC001F00FC002F010C003F011C004F0DE
:100A10002A50056E066A076A086A8EEC05F00150D6
:100A20002A02F35000080E24DF6E0EC001F00FC042
:100A300002F010C003F011C004F02A50056E066ADF
:100A4000076A086A8EEC05F001C00EF002C00FF0D4
:100A500003C010F004C011F011D01228D8B45AD03D
:100A60000A0E126401D056D02B50010D1E0EF32435
:100A7000D96E000EF420DA6E000EDF6E2B2A1250B3
:100A80002B5CD8B047D0AED7FF0E136EFF0E146E9E
:100A90002B50156E166A13501526145016221E0E72
:100AA0001524D96E000E1620DA6E0A0EDF6015D0FE
:100AB000FF0E136EFF0E146E2B50156E166A135038
:100AC0001526145016221E0E1524D96E000E16205F
:100AD000DA6EDF50176E300E14D0FF0E136EFF0E5D
:100AE000146E2B50156E166A1350152614501622CC
:100AF0001E0E1524D96E000E1620DA6EDF50176E0A
:100B0000370E1724286E296A000E292228506DEC12
:100B100006F02B062B50D8B41200B6D7000E096E83
:100B2000000E0A6E000E0B6E000E0C6E05500610C5
:100B300007100810D8B42AD0010E0D6E06D0D89038
:100B400005360636073608360D2A08AEF8D7D8908F
:100B500009360A360B360C360550015C0650025831
:100B60000750035808500458D8A009D00550015E1A
:100B70000650025A0750035A0850045A0980D89068
:100B800008320732063205320D2EE1D709C001F0D6
:100B90000AC002F00BC003F00CC004F012001150A8
:100BA000101006E1600E0E5C090E0F58D8A02DD073
:100BB00011502BE10E04C20E0F58010E1058D8B080
:100BC00024D0000E016E2D0E026E310E036E010E4A
:100BD000046E0EC012F00FC013F010C014F011C05C
:100BE00015F0060ED8901236133614361536E82E48
:100BF000F9D712C005F013C006F014C007F015C0F5
:100C000008F08EEC05F0010401D01F0E166E16C020
:100C1000AFFF120074EC06F0800E176E250E186EF2
:100C2000000E196E000E1A6E53EC06F0000E28EC42
:100C300006F003C044F004C045F0010E2C6E060E11
:100C40002D6E44C02EF045C02FF00AEC03F0EED715
:100C5000076E0744E846FC0BC26EC280000E026EAF
:100C60000A0E016E64EC06F0C282C2B2FED7C45016
:100C7000066E056AC3500524036E000E0620046E3E
:100C8000120009D002C0D9FF03C0DAFFDF506DECBB
:100C900006F0024A032A02C0D9FF03C0DAFFDF5080
:100CA000D8B41200EFD7800E946E200EAC6E900E6A
:100CB000AB6E17C00EF018C00FF019C010F01AC0BC
:100CC00011F0CFEC05F0120003D00106D8A0020607
:100CD00001500210D8B41200F8D7016E9EA8FED7BA
:100CE0009E9801C0ADFF1200000EC26E000EC16ED4
:100CF000820EC06E1200000EF86E00010AEF06F0C0
:020000040020DA
:08000000FFFFFFFFFFFFFFFF00
:020000040030CA
:0E000000FF02111EFF8180FF0FC00FE00F40B6
:00000001FF
