:04000000EBEF06F02C
:100600000073656E6420646174612066726F6D2092
:100610002073657269616C207465726D696E616CBE
:100620000000056E0538E8461F0B046E0550070BE9
:10063000056E96D00150D8B40DD005C002F0010E61
:10064000036E022A02D0D8900336022EFCD7035044
:100650008912120005C002F0010E036E022A02D0B8
:10066000D8900336022EFCD70350FF0A89161200D9
:100670000150D8B40DD005C002F0010E036E022A5D
:1006800002D0D8900336022EFCD703508A121200F3
:1006900005C002F0010E036E022A02D0D890033684
:1006A000022EFCD70350FF0A8A1612000150D8B45C
:1006B0000DD005C002F0010E036E022A02D0D890C0
:1006C0000336022EFCD703508B12120005C002F035
:1006D000010E036E022A02D0D8900336022EFCD7F8
:1006E0000350FF0A8B1612000150D8B40DD005C07C
:1006F00002F0010E036E022A02D0D8900336022EB9
:10070000FCD703508C12120005C002F0010E036EDC
:10071000022A02D0D8900336022EFCD70350FF0ADB
:100720008C1612000150D8B40DD005C002F0010E95
:10073000036E022A02D0D8900336022EFCD7035053
:100740008D12120005C002F0010E036E022A02D0C3
:10075000D8900336022EFCD70350FF0A8D161200E4
:100760000450000AD8B466D7010AD8B481D7030A66
:10077000D8B49CD7010AD8B4B7D7070AD8A41200B6
:10078000D1D7056E0538E8461F0B046E0550070BE0
:10079000056E96D00150D8B40DD005C002F0010E00
:1007A000036E022A02D0D8900336022EFCD70350E3
:1007B0009212120005C002F0010E036E022A02D04E
:1007C000D8900336022EFCD70350FF0A921612006F
:1007D0000150D8B40DD005C002F0010E036E022AFC
:1007E00002D0D8900336022EFCD703509312120089
:1007F00005C002F0010E036E022A02D0D890033623
:10080000022EFCD70350FF0A931612000150D8B4F1
:100810000DD005C002F0010E036E022A02D0D8905E
:100820000336022EFCD703509412120005C002F0CA
:10083000010E036E022A02D0D8900336022EFCD796
:100840000350FF0A941612000150D8B40DD005C011
:1008500002F0010E036E022A02D0D8900336022E57
:10086000FCD703509512120005C002F0010E036E72
:10087000022A02D0D8900336022EFCD70350FF0A7A
:10088000951612000150D8B40DD005C002F0010E2B
:10089000036E022A02D0D8900336022EFCD70350F2
:1008A0009612120005C002F0010E036E022A02D059
:1008B000D8900336022EFCD70350FF0A961612007A
:1008C0000450000AD8B466D7010AD8B481D7030A05
:1008D000D8B49CD7010AD8B4B7D7070AD8A4120055
:1008E000D1D7056E000E046E0538E8461F0B036E67
:1008F0000550070B056E4CD005C001F0010E026ECD
:10090000012A02D0D8900236012EFCD70250801462
:100910000009D8B43BD029D0046E4AD005C001F0FC
:10092000010E026E012A02D0D8900236012EFCD7A9
:100930000250811428D005C001F0010E026E012A78
:1009400002D0D8900236012EFCD7025082141BD060
:1009500005C001F0010E026E012A02D0D8900236C5
:10096000012EFCD7025083140ED0010ED5D705C03E
:1009700001F0010E026E012A02D0D8900236012E3B
:10098000FCD7025084140009D8A4EFD7000EC4D7B6
:100990000350000AD8B4B0D7010AD8B4BFD7030AAD
:1009A000D8B4C9D7010AD8B4D3D7070AD8B4DFD787
:1009B00004501200106E10C01FF006C020F007C0D7
:1009C00021F008C022F009C023F00AC024F00BC0B7
:1009D00025F00CC026F00DC027F00EC028F00FC087
:1009E00029F00828D8B409D00928D8B406D00A2894
:1009F000D8B403D00B28D8A403D0040E1E6E16D092
:100A0000080E1E6E000E016E0850C1EC03F0000EC1
:100A1000016E0950C1EC03F0000E016E0A50C1ECEA
:100A200003F0000E016E0B50C1EC03F0000E016EDE
:100A30001050C1EC03F0000E016E0650C1EC03F043
:100A4000000E016E0750C1EC03F0000E016E0C5059
:100A5000C1EC03F0000E016E0D50C1EC03F0000E6E
:100A6000016E0E50C1EC03F0000E016E0F50C1EC90
:100A700003F012002028D8B44CD0010E016E29508A
:100A8000C1EC03F0000E016E1F5011EC03F0010EDB
:100A9000016E205011EC03F0000E016E215011EC9C
:100AA00003F0000E026E0A0E016EE0EC07F0010E7C
:100AB000016E215011EC03F0000E026E0A0E016E61
:100AC000E0EC07F0295071EC04F0066E040E1E18DD
:100AD000D8A416D0000E016E215011EC03F0000EC8
:100AE000026E0A0E016EE0EC07F0010E016E21505D
:100AF00011EC03F0000E026E0A0E016EE0EC07F03E
:100B00000650D8A4C9D7000E016E2950C1EC03F0DD
:100B10001200000E046E010E036ED1EC07F01200FD
:100B2000000E096E000E0A6E000E0B6E000E0C6EAB
:100B30000550061007100810D8B42AD0010E0D6E0B
:100B400006D0D89005360636073608360D2A08AE88
:100B5000F8D7D89009360A360B360C360550015CAA
:100B6000065002580750035808500458D8A009D01E
:100B70000550015E0650025A0750035A0850045AA5
:100B80000980D89008320732063205320D2EE1D79F
:100B900009C001F00AC002F00BC003F00CC004F061
:100BA00012001150101006E1600E0E5C090E0F5875
:100BB000D8A02DD011502BE10E04C20E0F58010EFB
:100BC0001058D8B024D0000E016E2D0E026E310EDA
:100BD000036E010E046E0EC012F00FC013F010C0B1
:100BE00014F011C015F0060ED890123613361436D4
:100BF0001536E82EF9D712C005F013C006F014C060
:100C000007F015C008F090EC05F0010401D01F0EAC
:100C1000166E16C0AFFF1200090E066E0A0E076EA2
:100C2000FF0E086EFF0E096EFF0E0A6EFF0E0B6EB2
:100C30000C0E0C6E0D0E0D6E0E0E0E6E0F0E0F6E58
:100C4000080EDAEC04F0100E096E020E45EC06F008
:100C5000800E176E250E186E000E196E000E1A6E9D
:100C6000C0EC07F0010E096E060E0A6E83EC07F069
:100C7000000E6EEC07F0F7EC07F01B6E1B50E9EC72
:100C800007F01B50ADEC07F0F6D70A6E09C01DF057
:100C90000AC01CF0020E0A6408D009500F0B900F16
:100CA0002E6E09500F0BD00F2F6E000E046E640EC7
:100CB000036ED1EC07F0080E1E18D8A404D0380E2D
:100CC00055EC07F009D0040E1E18D8A405D072EC1C
:100CD00006F0280E55EC07F00E0E55EC07F0F0EC80
:100CE00007F01200300EC5EC06F021EC07F0000E04
:100CF000046E640E036ED1EC07F0300EC5EC06F006
:100D000021EC07F0000E026EC80E016EE0EC07F059
:100D1000300EC5EC06F021EC07F0000E026EC80E96
:100D2000016EE0EC07F0200EC5EC06F021EC07F0B8
:100D3000000E026EC80E016EE0EC07F01200066EA7
:100D400006A002D0010E01D0000E016E225011EC5F
:100D500003F006A202D0010E01D0000E016E235056
:100D600011EC03F006A402D0010E01D0000E016EBA
:100D7000245011EC03F006A602D0010E01D0000EA3
:100D8000016E255011EC03F01200066E06A802D089
:100D9000010E01D0000E016E265011EC03F006AAE0
:100DA00002D0010E01D0000E016E275011EC03F0AD
:100DB00006AC02D0010E01D0000E016E285011ECDD
:100DC00003F006AE02D0010E01D0000E016E2950D4
:100DD00011EC03F0120000EE1CF0100EEE6AE806B3
:100DE000FDE1F80EF66E0F0EF76E000EF86E00EED7
:100DF0002CF010EE04F00900F5CFEEFFE550E150C5
:100E0000FAE1000EF86E00010CEF06F0010E016E23
:100E10001F5011EC03F0000E016E205011EC03F096
:100E2000010E016E215011EC03F0000E026E0A0E4D
:100E3000016EE0EC07F0000E016E215011EC03F0A2
:100E40001200000E016E1F5011EC03F0000E016E37
:100E5000205011EC03F0010E016E215011EC03F053
:100E6000000E026E0A0E016EE0EC07F0000E016E3D
:100E7000215011EC03F01200076E3AEC05F0080E59
:100E80001E18D8A404D007509FEC06F008D00750D5
:100E9000C5EC06F006EC07F00738F00B076E0750BC
:100EA000C5EC06F006EC07F01200076E3AEC05F010
:100EB000080E1E18D8A404D007509FEC06F008D0E6
:100EC0000750C5EC06F021EC07F00738F00B076E71
:100ED0000750C5EC06F021EC07F01200086E1C501C
:100EE000085CD8B01200000E2A6E08C02BF0085023
:100EF000010D2C0EF324D96E000EF420DA6EDF50B3
:100F000055EC07F012000AD009C0F6FF0AC0F7FF3F
:100F10000800F550ADEC07F0094A0A2A09C0F6FFAF
:100F20000AC0F7FF0800F5500009D8B41200ECD74A
:100F30002B2A000E2A6E1C502B5CD8A002D0000E6B
:100F40002B6E2B50010D2C0EF324D96E000EF420C5
:100F5000DA6EDF5055EC07F01200086E1D502A5C67
:100F6000D8B003D00A0E0818D8B498EC07F00A0ECF
:100F70000818D8B4120008503CEC07F02A2A1200D6
:100F8000800E946E200EAC6E900EAB6E17C00EF0FD
:100F900018C00FF019C010F01AC011F0D1EC05F014
:100FA000120009D0010E026E5E0E016EE0EC07F039
:100FB0000306D8A0040603500410D8B41200F2D7D8
:100FC00003D00106D8A0020601500210D8B41200C6
:100FD000F8D7016E9EA8FED79E9801C0ADFF120003
:100FE000010E55EC07F0000E6EEC07F012009EAA01
:0C0FF000FED79E9AAE50120080C090D038
:020000040020DA
:08000000FFFFFFFFFFFFFFFF00
:020000040030CA
:0E000000FF02111EFF8180FF0FC00FE00F40B6
:00000001FF
