:04000000BFEF0CF052
:1006000000414443302056616C75653A2534640AD4
:09061000566F6C743A2566000077
:10061A00350E4F6E000E506E33C04BF034C04CF0A6
:10062A00A0D14BC0F6FF4CC0F7FF0800F5CF4DF044
:10063A00250E4D18D8A490D14B4A4C2A4BC0F6FF30
:10064A004CC0F7FF0800F5CF4DF02F0E4D641CD0BB
:10065A003A0E4D6019D0000E4E6E0FD04E500A0D54
:10066A00F3504D24D00F4E6E4B4A4C2A4BC0F6FF26
:10067A004CC0F7FF0800F5CF4DF02F0E4D643DD169
:10068A00390E4D64EBD739D14E6837D14FC0D9FFF7
:10069A0050C0DAFFDF504D6E020E4F26000E502278
:1006AA004D5085EC0DF05BD14FC0D9FF50C0DAFF39
:1006BA00DECF43F0DDCF44F0020E4F26000E50226B
:1006CA0044AE07D0436C441ED8B0442A2D0E85ECA4
:1006DA000DF043C00EF044C00FF0000E0FBEFF0E27
:1006EA00106E116E4EC012F00A0EC0EC04F037D133
:1006FA004FC0D9FF50C0DAFFDECF3FF0DECF40F067
:10070A00DECF41F0DECF42F0040E4F26000E50221B
:10071A0042AE0BD0421E411E401E3F6C000E4022CC
:10072A00412242222D0E85EC0DF03FC00EF040C052
:10073A000FF041C010F042C011F04EC012F00A0E84
:10074A00C0EC04F00CD14FC0D9FF50C0DAFFDECFA5
:10075A0049F0DDCF4AF0020E4F26000E502249C062
:10076A000EF04AC00FF0106A116A4EC012F00A0E5B
:10077A00C0EC04F0F4D04FC0D9FF50C0DAFFDECF8E
:10078A0045F0DECF46F0DECF47F0DECF48F0040E6C
:10079A004F26000E502245C00EF046C00FF047C04B
:1007AA0010F048C011F04EC012F00A0EC0EC04F06E
:1007BA00D6D04FC0D9FF50C0DAFFDECF49F0DDCF27
:1007CA004AF0020E4F26000E502249C00EF04AC0CF
:1007DA000FF0106A116A4EC012F0100EC0EC04F04D
:1007EA00BED04FC0D9FF50C0DAFFDECF45F0DECF12
:1007FA0046F0DECF47F0DECF48F0040E4F26000E5B
:10080A00502245C00EF046C00FF047C010F048C055
:10081A0011F04EC012F0100EC0EC04F0A0D04FC080
:10082A00D9FF50C0DAFFDECF49F0DDCF4AF0020E21
:10083A004F26000E50224E28D8A402D0100E4E6E1B
:10084A0049C00EF04AC00FF0106A116A4EC012F089
:10085A00020EC0EC04F083D04FC0D9FF50C0DAFFBB
:10086A00DECF45F0DECF46F0DECF47F0DECF48F0F0
:10087A00040E4F26000E50224E28D8A402D0100E85
:10088A004E6E45C00EF046C00FF047C010F048C08B
:10089A0011F04EC012F0020EC0EC04F060D04FC04E
:1008AA00D9FF50C0DAFFDECF3AF0DECF3BF0DDCF22
:1008BA003CF0030E4F26000E50223AC02CF03BC0EB
:1008CA002DF03CC02EF045EC09F049D04FC0D9FFBD
:1008DA0050C0DAFFDECF3DF0DDCF3EF0020E4F26EC
:1008EA00000E50223DC009F03EC00AF098EC0DF00F
:1008FA0036D0250E85EC0DF032D04D50250AD8B4ED
:10090A00F8D7670AD8B4A8D7010AD8B4BFD6070A55
:10091A00D8B4EED6020AD8B4C2D7150AD8B4D6D7F4
:10092A00060AD8B428D70D0AD8B45BD73A0AD8B47D
:10093A0076D7010AD8B4AAD6070AD8B4B5D6020A15
:10094A00D8B4ADD7150AD8B4C1D7060AD8B4FBD6DD
:10095A000D0AD8B42ED703D04D5085EC0DF04B4A72
:10096A004C2A4BC0F6FF4CC0F7FF0800F5500009AF
:10097A00D8B4120056D62A6E000E2B6E020E2A1812
:10098A00D8B434D037D012C013F0FF0E1326010E9C
:10099A00146E000E156E132A03D0D890143615362D
:1009AA00132EFBD714C016F015C017F0000E17BE91
:1009BA00FF0E186E196E0E5016141A6E0F50171479
:1009CA001B6E105018141C6E115019141D6E1A50FB
:1009DA001B101C101D10D8B402D0010E01D0000E3D
:1009EA002B6E2B50300F85EC0DF012061250D8B436
:1009FA001200C9D70E500F1010101110D8A404D02D
:100A0A00300E85EC0DF01200000E2B6E4DD00E50FC
:100A1A000F1010101110D8B435D02B50010D1E0E26
:100A2A00F324D96E000EF420DA6E0EC001F00FC066
:100A3A0002F010C003F011C004F02A50056E066AD5
:100A4A00076A086A8EEC0BF001502A02F35000087C
:100A5A000E24DF6E0EC001F00FC002F010C003F0CA
:100A6A0011C004F02A50056E066A076A086A8EECFD
:100A7A000BF001C00EF002C00FF003C010F004C06A
:100A8A0011F011D01228D8B45AD00A0E126401D02B
:100A9A0056D02B50010D1E0EF324D96E000EF420F1
:100AAA00DA6E000EDF6E2B2A12502B5CD8B047D0BC
:100ABA00AED7FF0E136EFF0E146E2B50156E166A0C
:100ACA0013501526145016221E0E1524D96E000E28
:100ADA001620DA6E0A0EDF6015D0FF0E136EFF0EB7
:100AEA00146E2B50156E166A1350152614501622C2
:100AFA001E0E1524D96E000E1620DA6EDF50176E00
:100B0A00300E14D0FF0E136EFF0E146E2B50156E9E
:100B1A00166A13501526145016221E0E1524D96E65
:100B2A00000E1620DA6EDF50176E370E1724286E65
:100B3A00296A000E2922285085EC0DF02B062B502D
:100B4A00D8B41200B6D717C01BF01C6A1D6A163437
:100B5A001B3601E31C801B50206E1AC01BF01C6A56
:100B6A001D6A19341B3601E31C801B501F6E20506E
:100B7A00D8B40BD01F50205CD8B00ED0205000083B
:100B8A001F241B6E180E1B6407D018C015F019C05D
:100B9A0016F01AC017F012001F50D8B40BD020500C
:100BAA001F5CD8B00ED01F50000820241B6E180EF0
:100BBA001B6407D015C015F016C016F017C017F041
:100BCA001200060E1E6E17BE1E8E1ABE1E8C168EC2
:100BDA00FF0E1516FF0E1616000E1716198EFF0EAB
:100BEA001816FF0E1916000E1A161F50205CD8B0E0
:100BFA001BD0D890183619361A361F0620501F18DF
:100C0A00D8B40DD01E061EC01BF0070E1B16D8B492
:100C1A0006D0EFD7D890173216321532202A1F5035
:100C2A002018D8B41FD0F6D720501F5CD8B01AD0DD
:100C3A00D890153616361736200620501F18D8B405
:100C4A000DD01E061EC01BF0070E1B16D8B406D008
:100C5A00EFD7D8901A32193218321F2A1F5020188B
:100C6A00D8A4F7D71EAE0CD0FF0E151AFF0E161A0F
:100C7A00FF0E171A010E1526000E1622000E172255
:100C8A001EAC0CD0FF0E181AFF0E191AFF0E1A1AF4
:100C9A00010E1826000E1922000E1A22000E1E6ED0
:100CAA00155018261650192217501A221AAE0ED0AD
:100CBA00FF0E181AFF0E191AFF0E1A1A010E18261D
:100CCA00000E1922000E1A22010E1E6E18C001F023
:100CDA0019C002F01AC003F020C004F01EC005F0CB
:100CEA00E1EC0AF001C015F002C016F003C017F0DB
:100CFA001200056E0538E8461F0B046E0550070BF7
:100D0A00056E96D00150D8B40DD005C002F0010E80
:100D1A00036E022A02D0D8900336022EFCD7035063
:100D2A008912120005C002F0010E036E022A02D0D7
:100D3A00D8900336022EFCD70350FF0A89161200F8
:100D4A000150D8B40DD005C002F0010E036E022A7C
:100D5A0002D0D8900336022EFCD703508A12120012
:100D6A0005C002F0010E036E022A02D0D8900336A3
:100D7A00022EFCD70350FF0A8A1612000150D8B47B
:100D8A000DD005C002F0010E036E022A02D0D890DF
:100D9A000336022EFCD703508B12120005C002F054
:100DAA00010E036E022A02D0D8900336022EFCD717
:100DBA000350FF0A8B1612000150D8B40DD005C09B
:100DCA0002F0010E036E022A02D0D8900336022ED8
:100DDA00FCD703508C12120005C002F0010E036EFC
:100DEA00022A02D0D8900336022EFCD70350FF0AFB
:100DFA008C1612000150D8B40DD005C002F0010EB5
:100E0A00036E022A02D0D8900336022EFCD7035072
:100E1A008D12120005C002F0010E036E022A02D0E2
:100E2A00D8900336022EFCD70350FF0A8D16120003
:100E3A000450000AD8B466D7010AD8B481D7030A85
:100E4A00D8B49CD7010AD8B4B7D7070AD8A41200D5
:100E5A00D1D7056E0538E8461F0B046E0550070BFF
:100E6A00056E96D00150D8B40DD005C002F0010E1F
:100E7A00036E022A02D0D8900336022EFCD7035002
:100E8A009212120005C002F0010E036E022A02D06D
:100E9A00D8900336022EFCD70350FF0A921612008E
:100EAA000150D8B40DD005C002F0010E036E022A1B
:100EBA0002D0D8900336022EFCD7035093121200A8
:100ECA0005C002F0010E036E022A02D0D890033642
:100EDA00022EFCD70350FF0A931612000150D8B411
:100EEA000DD005C002F0010E036E022A02D0D8907E
:100EFA000336022EFCD703509412120005C002F0EA
:100F0A00010E036E022A02D0D8900336022EFCD7B5
:100F1A000350FF0A941612000150D8B40DD005C030
:100F2A0002F0010E036E022A02D0D8900336022E76
:100F3A00FCD703509512120005C002F0010E036E91
:100F4A00022A02D0D8900336022EFCD70350FF0A99
:100F5A00951612000150D8B40DD005C002F0010E4A
:100F6A00036E022A02D0D8900336022EFCD7035011
:100F7A009612120005C002F0010E036E022A02D078
:100F8A00D8900336022EFCD70350FF0A9616120099
:100F9A000450000AD8B466D7010AD8B481D7030A24
:100FAA00D8B49CD7010AD8B4B7D7070AD8A4120074
:100FBA00D1D71EC020F0216A226A1D34203601E3EF
:100FCA00218020502A6E2A50D8A409D0000E1C6E07
:100FDA00000E1D6E000E1E6E000E1F6E1200170E02
:100FEA00206E1CC021F01DC022F01EC023F0202854
:100FFA00246E04D0D890233222322132242EFAD7FA
:10100A002150256E1D8EFF0E1C16FF0E1D16000E9A
:10101A001E161C50266E1D50276E1E50286E296AF9
:10102A008E0E2A5E2AAE16D02A50800A8F0FD8B0AA
:10103A0009D0000E1C6E000E1D6E000E1E6E000EF4
:10104A001F6E1200D89029322832273226322A3EC1
:10105A00F9D715D0170E2A640FD0000E1C6E000E99
:10106A001D6E000E1E6E000E1F6E1200D8902636E0
:10107A002736283629362A062A50D8A4F7D72550E3
:10108A00D8B408D0291E281E271E266C000E272237
:10109A002822292226C01CF027C01DF028C01EF0D5
:1010AA0029C01FF012000FC013F0146A156A0E341B
:1010BA00133601E314801350166E1650D8A407D0C5
:1010CA00000E0D6E000E0E6E000E0F6E120012C094
:1010DA0013F0146A156A1134133601E3148013509D
:1010EA001B6E1B50D8A407D0000E0D6E000E0E6E9C
:1010FA00000E0F6E12001B507B0F16260FC01BF03E
:10110A0012501B1A800E1B160E8E118EFF0E101611
:10111A00FF0E1116000E1216000E176E000E186E34
:10112A00000E196E070E1A6E0DA006D01050172663
:10113A001150182212501922D8900F320E320D3245
:10114A00D8901036113612361A2EEED7090E1A6EAC
:10115A000DA006D01050172611501822125019222D
:10116A00D8900F320E320D32D89019321832173207
:10117A001A2EEED717C001F018C002F019C003F0FA
:10118A0016C004F01BC005F0E1EC0AF001C00DF036
:10119A0002C00EF003C00FF012001EC022F0236A34
:1011AA00246A1D34223601E323802250296E2950F5
:1011BA00D8A407D0000E1C6E000E1D6E000E1E6E07
:1011CA00120021C022F0236A246A2034223601E365
:1011DA00238022502A6E2A50D8A407D0000E1C6EF3
:1011EA00000E1D6E000E1E6E1200000E266E000E00
:1011FA00276E000E286E2A50890F295E1EC02AF01B
:10120A0021502A1A800E2A161D8EFF0E1C16FF0E5A
:10121A001D16000E1E16208EFF0E1F16FF0E20161C
:10122A00000E2116180E256ED89026362736283637
:10123A001F501C5C20501D5821501E58D8A007D0A2
:10124A001F501C5E20501D5A21501E5A2680D890CD
:10125A001C361D361E36252EE7D726C001F027C0BC
:10126A0002F028C003F029C004F02AC005F0E1EC1E
:10127A000AF001C01CF002C01DF003C01EF01200EB
:10128A002CC01CF02DC01DF02EC01EF0DEEC07F0A5
:10129A001CC02FF01DC030F01EC031F01FC032F04C
:1012AA002FC00EF030C00FF031C010F032C011F074
:1012BA00FF0E126E0A0EC0EC04F02E0E85EC0DF035
:1012CA002FC009F030C00AF031C00BF032C00CF068
:1012DA00CFEC0BF009C012F00AC013F00BC014F0E7
:1012EA00AAEC0DF012C015F013C016F014C017F0D6
:1012FA002CC018F02DC019F02EC01AF0A8EC05F079
:10130A0015C02CF016C02DF017C02EF0240E106E4A
:10131A00740E116E490E126E2CC00DF02DC00EF017
:10132A002EC00FF058EC08F00DC01CF00EC01DF0D6
:10133A000FC01EF0DEEC07F01CC02FF01DC030F00D
:10134A001EC031F01FC032F02FC00EF030C00FF0B7
:10135A0031C010F032C011F0FF0E126E0A0EC0EC4E
:10136A0004F01200056E000E046E0538E8461F0BE5
:10137A00036E0550070B056E4CD005C001F0010E37
:10138A00026E012A02D0D8900236012EFCD70250F2
:10139A0080140009D8B43BD029D0046E4AD005C0C5
:1013AA0001F0010E026E012A02D0D8900236012EF7
:1013BA00FCD70250811428D005C001F0010E026E3C
:1013CA00012A02D0D8900236012EFCD7025082148C
:1013DA001BD005C001F0010E026E012A02D0D8907E
:1013EA000236012EFCD7025083140ED0010ED5D737
:1013FA0005C001F0010E026E012A02D0D890023611
:10140A00012EFCD7025084140009D8A4EFD7000E8D
:10141A00C4D70350000AD8B4B0D7010AD8B4BFD78A
:10142A00030AD8B4C9D7010AD8B4D3D7070AD8B49B
:10143A00DFD704501200DBEC0DF0090E066E0A0E1F
:10144A00076EFF0E086EFF0E096EFF0E0A6EFF0E84
:10145A000B6E0C0E0C6E0D0E0D6E0E0E0E6E0F0E2A
:10146A000F6E080E81EC0AF0100E096E020EFDECEA
:10147A000BF0000E42EC0DF003C054F004C055F01E
:10148A00000E106EA00E116E400E126E54C009F0BE
:10149A0055C00AF0A3EC0CF009C00DF00AC00EF01A
:1014AA000BC00FF058EC08F00DC01CF00EC01DF078
:1014BA000FC01EF0C00E1F6E7F0E206E440E216EEE
:1014CA00D2EC08F01CC051F01DC052F01EC053F0FF
:1014DA00000E70EC0DF0010E336E060E346E54C021
:1014EA0035F055C036F051C037F052C038F053C00D
:1014FA0039F00DEC03F0BDD7106E10C059F006C0DC
:10150A005AF007C05BF008C05CF009C05DF00AC081
:10151A005EF00BC05FF00CC060F00DC061F00EC051
:10152A0062F00FC063F00828D8B409D00928D8B4EB
:10153A0006D00A28D8B403D00B28D8A403D0040EA6
:10154A00586E16D0080E586E000E016E08502EEC1A
:10155A0007F0000E016E09502EEC07F0000E016E26
:10156A000A502EEC07F0000E016E0B502EEC07F01D
:10157A00000E016E10502EEC07F0000E016E0650A0
:10158A002EEC07F0000E016E07502EEC07F0000E4D
:10159A00016E0C502EEC07F0000E016E0D502EEC71
:1015AA0007F0000E016E0E502EEC07F0000E016ED1
:1015BA000F502EEC07F012000450D8B405D0015099
:1015CA0002100310D8A40CD0000E016E000E026E99
:1015DA00000E036E1200042AD8900332023201323E
:1015EA00000E0114066E000E0214076EFE0E03149E
:1015FA00086E065007100810D8B40CD0ECD7042A8D
:10160A00010E0126000E0222000E0322D890033298
:10161A0002320132000E0114066E000E0214076E29
:10162A00FF0E0314086E065007100810D8B406D02F
:10163A00E6D70406D89001360236033602BE03D036
:10164A00020E0460F6D704A0029ED8900432045019
:10165A0003120550D8A4038E01C001F002C002F0A3
:10166A0003C003F012005A28D8B44CD0010E016E00
:10167A0063502EEC07F0000E016E59507EEC06F016
:10168A00010E016E5A507EEC06F0000E016E5B50A0
:10169A007EEC06F0000E026E0A0E016ECBEC0DF027
:1016AA00010E016E5B507EEC06F0000E026E0A0E11
:1016BA00016ECBEC0DF06350B7EC09F0066E040E28
:1016CA005818D8A416D0000E016E5B507EEC06F0B6
:1016DA00000E026E0A0E016ECBEC0DF0010E016EC9
:1016EA005B507EEC06F0000E026E0A0E016ECBEC29
:1016FA000DF00650D8A4C9D7000E016E63502EEC27
:10170A0007F01200000E046E010E036EBCEC0DF021
:10171A001200000E096E000E0A6E000E0B6E000E0D
:10172A000C6E0550061007100810D8B42AD0010E06
:10173A000D6E06D0D89005360636073608360D2ABD
:10174A0008AEF8D7D89009360A360B360C3605504B
:10175A00015C065002580750035808500458D8A094
:10176A0009D00550015E0650025A0750035A085024
:10177A00045A0980D89008320732063205320D2EF3
:10178A00E1D709C001F00AC002F00BC003F00CC097
:10179A0004F012008E0E116E06D0D8900C320B3265
:1017AA000A320932112A000E09140D6E000E0A14AB
:1017BA000E6E000E0B140F6EFF0E0C14106E0D50F1
:1017CA000E100F101010D8A4E8D709C001F00AC0F3
:1017DA0002F00BC003F011C004F0000E056EE1EC3C
:1017EA000AF001C009F002C00AF003C00BF01200AF
:1017FA000A6E09C057F00AC056F0020E0A6408D0F1
:10180A0009500F0B900F686E09500F0BD00F696EBD
:10181A00000E046E640E036EBCEC0DF0080E581830
:10182A00D8A404D0380E29EC0DF009D0040E5818AB
:10183A00D8A405D02AEC0CF0280E29EC0DF00E0ED7
:10184A0029EC0DF0D4EC0DF01200300E7DEC0CF00A
:10185A00F5EC0CF0000E046E640E036EBCEC0DF099
:10186A00300E7DEC0CF0F5EC0CF0000E026EC80E9A
:10187A00016ECBEC0DF0300E7DEC0CF0F5EC0CF0BB
:10188A00000E026EC80E016ECBEC0DF0200E7DEC40
:10189A000CF0F5EC0CF0000E026EC80E016ECBECEB
:1018AA000DF01200066E06A002D0010E01D0000E45
:1018BA00016E5C507EEC06F006A202D0010E01D049
:1018CA00000E016E5D507EEC06F006A402D0010EF9
:1018DA0001D0000E016E5E507EEC06F006A602D024
:1018EA00010E01D0000E016E5F507EEC06F0120070
:1018FA00066E06A802D0010E01D0000E016E6050DD
:10190A007EEC06F006AA02D0010E01D0000E016E8E
:10191A0061507EEC06F006AC02D0010E01D0000E3A
:10192A00016E62507EEC06F006AE02D0010E01D0C6
:10193A00000E016E63507EEC06F01200000E0C6E73
:10194A000AAE06D0096C0A1ED8B00A2A010E0C6E1D
:10195A0009C001F00AC002F0036A8E0E046E0CC0C0
:10196A0005F0E1EC0AF001C009F002C00AF003C078
:10197A000BF0120000EE56F0100EEE6AE806FDE1DA
:10198A00C40EF66E1B0EF76E000EF86E00EE66F0D1
:10199A0010EE04F00900F5CFEEFFE550E150FAE150
:1019AA00000EF86E000120EF0AF0010E016E595088
:1019BA007EEC06F0000E016E5A507EEC06F0010E27
:1019CA00016E5B507EEC06F0000E026E0A0E016E8E
:1019DA00CBEC0DF0000E016E5B507EEC06F01200AF
:1019EA00000E016E59507EEC06F0000E016E5A5040
:1019FA007EEC06F0010E016E5B507EEC06F0000EE6
:101A0A00026E0A0E016ECBEC0DF0000E016E5B50F9
:101A1A007EEC06F01200076E38EC0BF0080E581830
:101A2A00D8A404D0075057EC0CF008D007507DEC2E
:101A3A000CF0DAEC0CF00738F00B076E07507DEC6F
:101A4A000CF0DAEC0CF01200076E38EC0BF0080E12
:101A5A005818D8A404D0075057EC0CF008D00750F7
:101A6A007DEC0CF0F5EC0CF00738F00B076E075024
:101A7A007DEC0CF0F5EC0CF01200076E0744E8461A
:101A8A00FC0BC26EC280000E026E0A0E016ECBEC17
:101A9A000DF0C282C2B2FED7C450066E056AC350A8
:101AAA000524036E000E0620046E1200652A000E3D
:101ABA00646E5650655CD8A002D0000E656E655003
:101ACA00010D660EF324D96E000EF420DA6EDF5093
:101ADA0029EC0DF01200086E5650085CD8B01200BE
:101AEA00000E646E08C065F00850010D660EF324FE
:101AFA00D96E000EF420DA6EDF5029EC0DF01200D8
:101B0A00086E5750645CD8B003D00A0E0818D8B4CF
:101B1A005BEC0DF00A0E0818D8B41200085010EC4D
:101B2A000DF0642A120009D009C0D9FF0AC0DAFFF1
:101B3A00DF5085EC0DF0094A0A2A09C0D9FF0AC00C
:101B4A00DAFFDF50D8B41200EFD712501310141076
:101B5A00D8B406D0000E121A000E131A800E141AE8
:101B6A0012C012F013C013F014C014F0120009D0FE
:101B7A00010E026E5E0E016ECBEC0DF00306D8A0CC
:101B8A00040603500410D8B41200F2D703D0010699
:101B9A00D8A0020601500210D8B41200F8D7010EDC
:101BAA0029EC0DF0000E70EC0DF01200000EC26E62
:0E1BBA00000EC16E820EC06E120080C090D070
:020000040020DA
:08000000FFFFFFFFFFFFFFFF00
:020000040030CA
:0E000000FF02111EFF8180FF0FC00FE00F40B6
:00000001FF
