:0400000085EF06F092
:10060000006865783A307825327820202062696E5B
:100610003A2538622020206465633A2533640A0D48
:1006200000002E0E466E000E476E2CC042F02DC00C
:1006300043F089D142C0F6FF43C0F7FF0800F5CF71
:1006400044F0250E4418D8A479D1424A432A42C026
:10065000F6FF43C0F7FF0800F5CF44F02F0E4464C7
:100660001CD03A0E446019D0000E456E0FD0455094
:100670000A0DF3504424D00F456E424A432A42C02B
:10068000F6FF43C0F7FF0800F5CF44F02F0E446497
:1006900026D1390E4464EBD722D1456820D146C01B
:1006A000D9FF47C0DAFFDF50446E020E4626000E27
:1006B000472244507EEC06F044D146C0D9FF47C0E3
:1006C000DAFFDECF3AF0DDCF3BF0020E4626000E19
:1006D00047223BAE07D03A6C3B1ED8B03B2A2D0ECA
:1006E0007EEC06F03AC00EF03BC00FF0000E0FBEDD
:1006F000FF0E106E116E45C012F00A0EADEC04F044
:1007000020D146C0D9FF47C0DAFFDECF36F0DECFBA
:1007100037F0DECF38F0DECF39F0040E4626000E7B
:10072000472239AE0BD0391E381E371E366C000EEC
:100730003722382239222D0E7EEC06F036C00EF01C
:1007400037C00FF038C010F039C011F045C012F0BA
:100750000A0EADEC04F0F5D046C0D9FF47C0DAFF71
:10076000DECF40F0DDCF41F0020E4626000E4722DC
:1007700040C00EF041C00FF0106A116A45C012F07F
:100780000A0EADEC04F0DDD046C0D9FF47C0DAFF59
:10079000DECF3CF0DECF3DF0DECF3EF0DECF3FF0EF
:1007A000040E4626000E47223CC00EF03DC00FF05E
:1007B0003EC010F03FC011F045C012F00A0EADEC83
:1007C00004F0BFD046C0D9FF47C0DAFFDECF40F00B
:1007D000DDCF41F0020E4626000E472240C00EF04B
:1007E00041C00FF0106A116A45C012F0100EADEC56
:1007F00004F0A7D046C0D9FF47C0DAFFDECF3CF0F7
:10080000DECF3DF0DECF3EF0DECF3FF0040E4626D9
:10081000000E47223CC00EF03DC00FF03EC010F06D
:100820003FC011F045C012F0100EADEC04F089D0BD
:1008300046C0D9FF47C0DAFFDECF40F0DDCF41F040
:10084000020E4626000E47224528D8A402D0100EDC
:10085000456E40C00EF041C00FF0106A116A45C0ED
:1008600012F0020EADEC04F06CD046C0D9FF47C0C8
:10087000DAFFDECF3CF0DECF3DF0DECF3EF0DECF64
:100880003FF0040E4626000E47224528D8A402D089
:10089000200E456E3CC00EF03DC00FF03EC010F083
:1008A0003FC011F045C012F0020EADEC04F049D08B
:1008B00046C0D9FF47C0DAFFDECF34F0DDCF35F0D8
:1008C000020E4626000E472234C002F035C003F067
:1008D00043EC06F036D0250E7EEC06F032D04450C4
:1008E000250AD8B4F8D7670AD8B4BFD7010AD8B454
:1008F000D6D6070AD8B405D7020AD8B422D0150A2A
:10090000D8B4D6D7060AD8B43FD70D0AD8B472D710
:100910003A0AD8B48DD7010AD8B4C1D6070AD8B4D8
:10092000CCD6020AD8B40DD0150AD8B4C1D7060A5D
:10093000D8B412D70D0AD8B445D703D044507EECB2
:1009400006F0424A432A42C0F6FF43C0F7FF0800C0
:10095000F5500009D8B412006DD62A6E000E2B6E29
:10096000020E2A18D8B434D037D012C013F0FF0EBC
:100970001326010E146E000E156E132A03D0D890A4
:1009800014361536132EFBD714C016F015C017F009
:10099000000E17BEFF0E186E196E0E5016141A6E4A
:1009A0000F5017141B6E105018141C6E1150191490
:1009B0001D6E1A501B101C101D10D8B402D0010E51
:1009C00001D0000E2B6E2B50300F7EEC06F012067D
:1009D0001250D8B41200C9D70E500F1010101110B9
:1009E000D8A404D0300E7EEC06F01200000E2B6E60
:1009F0004DD00E500F1010101110D8B435D02B5010
:100A0000010D1E0EF324D96E000EF420DA6E0EC016
:100A100001F00FC002F010C003F011C004F02A5022
:100A2000056E066A076A086A95EC05F001502A020D
:100A3000F35000080E24DF6E0EC001F00FC002F06C
:100A400010C003F011C004F02A50056E066A076A50
:100A5000086A95EC05F001C00EF002C00FF003C06B
:100A600010F004C011F011D01228D8B45AD00A0ED8
:100A7000126401D056D02B50010D1E0EF324D96EF6
:100A8000000EF420DA6E000EDF6E2B2A12502B5C63
:100A9000D8B047D0AED7FF0E136EFF0E146E2B509A
:100AA000156E166A13501526145016221E0E1524A4
:100AB000D96E000E1620DA6E0A0EDF6015D0FF0E1A
:100AC000136EFF0E146E2B50156E166A13501526FA
:100AD000145016221E0E1524D96E000E1620DA6E42
:100AE000DF50176E300E14D0FF0E136EFF0E146E13
:100AF0002B50156E166A13501526145016221E0E12
:100B00001524D96E000E1620DA6EDF50176E370EE0
:100B10001724286E296A000E292228507EEC06F040
:100B20002B062B50D8B41200B6D7000E096E000E5B
:100B30000A6E000E0B6E000E0C6E055006100710AC
:100B40000810D8B42AD0010E0D6E06D0D890053604
:100B50000636073608360D2A08AEF8D7D89009367B
:100B60000A360B360C360550015C06500258075009
:100B7000035808500458D8A009D00550015E06500B
:100B8000025A0750035A0850045A0980D890083274
:100B90000732063205320D2EE1D709C001F00AC036
:100BA00002F00BC003F00CC004F012001150101042
:100BB00006E1600E0E5C090E0F58D8A02DD0115022
:100BC0002BE10E04C20E0F58010E1058D8B024D0DD
:100BD000000E016E2D0E026E310E036E010E046EBC
:100BE0000EC012F00FC013F010C014F011C015F0B9
:100BF000060ED8901236133614361536E82EF9D76D
:100C000012C005F013C006F014C007F015C008F0BC
:100C100095EC05F0010401D01F0E166E16C0AFFF53
:100C20001200000E496E000E486E800E176E250EE3
:100C3000186E000E196E000E1A6E55EC06F0010EBD
:100C40002C6E060E2D6E48C02EF049C02FF048C005
:100C500030F049C031F048C032F049C033F011ECF7
:100C600003F0000E046E640E036E66EC06F0484A54
:100C7000492A49BEE4D74904D8A0E1D7000E496EFD
:100C8000000E486EDCD709D002C0D9FF03C0DAFFDE
:100C9000DF507EEC06F0024A032A02C0D9FF03C0EF
:100CA000DAFFDF50D8B41200EFD7800E946E200E1A
:100CB000AC6E900EAB6E17C00EF018C00FF019C0DE
:100CC00010F01AC011F0D6EC05F0120009D0010E98
:100CD000026E5E0E016E75EC06F00306D8A00406E7
:100CE00003500410D8B41200F2D703D00106D8A0E4
:100CF000020601500210D8B41200F8D7016E9EA867
:100D0000FED79E9801C0ADFF1200000EF86E0001E4
:040D100011EF06F0E9
:020000040020DA
:08000000FFFFFFFFFFFFFFFF00
:020000040030CA
:0E000000FF02111EFF8180FF0FC00FE00F40B6
:00000001FF
