:0400000059EF3DF087
:107AB200000EF86E000165EF3DF0016E9EA8FED744
:107AC2009E9801C0ADFF1200800E176E250E186E33
:107AD200000E196E000E1A6E73EC3DF0650E5EEC30
:107AE2003DF0FCD7800E946E200EAC6E900EAB6E05
:107AF20017C00EF018C00FF019C010F01AC011F024
:107B020084EC3DF012001150101006E1600E0E5C84
:107B1200090E0F58D8A02DD011502BE10E04C20E21
:107B22000F58010E1058D8B024D0000E016E2D0E41
:107B3200026E310E036E010E046E0EC012F00FC003
:107B420013F010C014F011C015F0060ED8901236C2
:107B5200133614361536E82EF9D712C005F013C0C5
:107B620006F014C007F015C008F0BFEC3DF00104A8
:107B720001D01F0E166E16C0AFFF1200000E096E66
:107B8200000E0A6E000E0B6E000E0C6E05500610F3
:107B920007100810D8B42AD0010E0D6E06D0D89066
:107BA20005360636073608360D2A08AEF8D7D890BD
:107BB20009360A360B360C360550015C065002585F
:107BC2000750035808500458D8A009D00550015E48
:107BD2000650025A0750035A0850045A0980D89096
:107BE20008320732063205320D2EE1D709C001F004
:0E7BF2000AC002F00BC003F00CC004F0120039
:020000040020DA
:08000000FFFFFFFFFFFFFFFF00
:020000040030CA
:0E000000FF02111EFF8180FF0FC00FE00F40B6
:00000001FF
