:04000000C1EF3DF01F
:107B82000001DFEF3DF0000E046E000E036E0FD019
:107B9200000E066E000E056EE80E055C030E06581A
:107BA200D8B003D0054A062AF7D7034A042A01505F
:107BB200035C02500458D8B01200EAD7000E926E4D
:107BC200000E936E000E946E000E956E80688168B2
:107BD20082688368000E026E640E016EC4EC3DF092
:107BE200000E806E000E816E000E826E000E836E9D
:0E7BF200000E026E640E016EC4EC3DF0E7D78B
:020000040020DA
:08000000FFFFFFFFFFFFFFFF00
:020000040030CA
:0E000000FF071F1FFF8385FF0FC00FE00F409B
:00000001FF
