:04000000D8EF06F03F
:1006000000202020202020202057656C636F6D651E
:1006100020746F205049432070726F6772616D6D56
:10062000696E67206279204578706C6F726520452D
:100630006D626564646564200000056E0538E846F7
:100640001F0B046E0550070B056E96D00150D8B4F1
:100650000DD005C002F0010E036E022A02D0D89020
:100660000336022EFCD703508912120005C002F097
:10067000010E036E022A02D0D8900336022EFCD758
:100680000350FF0A891612000150D8B40DD005C0DE
:1006900002F0010E036E022A02D0D8900336022E19
:1006A000FCD703508A12120005C002F0010E036E3F
:1006B000022A02D0D8900336022EFCD70350FF0A3C
:1006C0008A1612000150D8B40DD005C002F0010EF8
:1006D000036E022A02D0D8900336022EFCD70350B4
:1006E0008B12120005C002F0010E036E022A02D026
:1006F000D8900336022EFCD70350FF0A8B16120047
:100700000150D8B40DD005C002F0010E036E022ACC
:1007100002D0D8900336022EFCD703508C12120060
:1007200005C002F0010E036E022A02D0D8900336F3
:10073000022EFCD70350FF0A8C1612000150D8B4C9
:100740000DD005C002F0010E036E022A02D0D8902F
:100750000336022EFCD703508D12120005C002F0A2
:10076000010E036E022A02D0D8900336022EFCD767
:100770000350FF0A8D1612000450000AD8B466D741
:10078000010AD8B481D7030AD8B49CD7010AD8B4D7
:10079000B7D7070AD8A41200D1D7056E0538E846A6
:1007A0001F0B046E0550070B056E96D00150D8B490
:1007B0000DD005C002F0010E036E022A02D0D890BF
:1007C0000336022EFCD703509212120005C002F02D
:1007D000010E036E022A02D0D8900336022EFCD7F7
:1007E0000350FF0A921612000150D8B40DD005C074
:1007F00002F0010E036E022A02D0D8900336022EB8
:10080000FCD703509312120005C002F0010E036ED4
:10081000022A02D0D8900336022EFCD70350FF0ADA
:10082000931612000150D8B40DD005C002F0010E8D
:10083000036E022A02D0D8900336022EFCD7035052
:100840009412120005C002F0010E036E022A02D0BB
:10085000D8900336022EFCD70350FF0A94161200DC
:100860000150D8B40DD005C002F0010E036E022A6B
:1008700002D0D8900336022EFCD7035095121200F6
:1008800005C002F0010E036E022A02D0D890033692
:10089000022EFCD70350FF0A951612000150D8B45F
:1008A0000DD005C002F0010E036E022A02D0D890CE
:1008B0000336022EFCD703509612120005C002F038
:1008C000010E036E022A02D0D8900336022EFCD706
:1008D0000350FF0A961612000450000AD8B466D7D7
:1008E000010AD8B481D7030AD8B49CD7010AD8B476
:1008F000B7D7070AD8A41200D1D70F6E14500F5CD7
:10090000D8A002D0000E0F6E0C0E42EC07F0000EC5
:10091000106E4AD00F5070EC07F0000E116E18D018
:10092000115010C00BF00C6A0B26000E0C2209C0EF
:100930000DF00AC00EF00B500D260C500E220DC00B
:10094000F6FF0EC0F7FF0800F55085EC07F0112AFE
:100950001550115CD8B01DD0115010C00BF00C6AAE
:100960000B26000E0C2209C00DF00AC00EF00B5031
:100970000D260C500E220DC0F6FF0EC0F7FF08002A
:10098000F5500009D8B405D0CBD7200E85EC07F080
:10099000112A1550115CD8A0F8D7000E046EC80EAD
:1009A000036E98EC07F0102A1050010D09C00BF0EF
:1009B0000AC00CF0F3500B26F4500C220BC0F6FFCB
:1009C0000CC0F7FF0800F5500009D8A4A3D70E0EFD
:1009D00042EC07F01200056E000E046E0538E84682
:1009E0001F0B036E0550070B056E4CD005C001F0C0
:1009F000010E026E012A02D0D8900236012EFCD7D9
:100A0000025080140009D8B43BD029D0046E4AD0DB
:100A100005C001F0010E026E012A02D0D890023604
:100A2000012EFCD70250811428D005C001F0010E20
:100A3000026E012A02D0D8900236012EFCD7025055
:100A400082141BD005C001F0010E026E012A02D0F3
:100A5000D8900236012EFCD7025083140ED0010E1E
:100A6000D5D705C001F0010E026E012A02D0D89040
:100A70000236012EFCD7025084140009D8A4EFD707
:100A8000000EC4D70350000AD8B4B0D7010AD8B4B6
:100A9000BFD7030AD8B4C9D7010AD8B4D3D7070A35
:100AA000D8B4DFD704501200106E10C017F006C083
:100AB00018F007C019F008C01AF009C01BF00AC0EE
:100AC0001CF00BC01DF00CC01EF00DC01FF00EC0BE
:100AD00020F00FC021F00828D8B409D00928D8B4D4
:100AE00006D00A28D8B403D00B28D8A403D0040E0B
:100AF000166E16D0080E166E000E016E0850CDEC64
:100B000003F0000E016E0950CDEC03F0000E016EF3
:100B10000A50CDEC03F0000E016E0B50CDEC03F04B
:100B2000000E016E1050CDEC03F0000E016E065069
:100B3000CDEC03F0000E016E0750CDEC03F0000E7B
:100B4000016E0C50CDEC03F0000E016E0D50CDEC9B
:100B500003F0000E016E0E50CDEC03F0000E016E9E
:100B60000F50CDEC03F012001828D8B44CD0010E71
:100B7000016E2150CDEC03F0000E016E17501DECFC
:100B800003F0010E016E18501DEC03F0000E016E13
:100B900019501DEC03F0000E026E0A0E016EA7EC58
:100BA00007F0010E016E19501DEC03F0000E026EED
:100BB0000A0E016EA7EC07F02150EBEC04F0066E74
:100BC000040E1618D8A416D0000E016E19501DEC94
:100BD00003F0000E026E0A0E016EA7EC07F0010E84
:100BE000016E19501DEC03F0000E026E0A0E016E2C
:100BF000A7EC07F00650D8A4C9D7000E016E21500B
:100C0000CDEC03F01200000E046E010E036E98ECA2
:100C100007F012000A6E09C015F00AC014F0020EA7
:100C20000A6408D009500F0B900F266E09500F0B65
:100C3000D00F276E000E046E640E036E98EC07F062
:100C4000080E1618D8A404D0380E42EC07F009D0CC
:100C5000040E1618D8A405D037EC06F0280E42EC86
:100C600007F00E0E42EC07F0B0EC07F01200300E69
:100C7000B2EC06F00EEC07F0000E046E640E036E8C
:100C800098EC07F0300EB2EC06F00EEC07F0000E18
:100C9000026EC80E016EA7EC07F0300EB2EC06F043
:100CA0000EEC07F0000E026EC80E016EA7EC07F006
:100CB000200EB2EC06F00EEC07F0000E026EC80E2D
:100CC000016EA7EC07F01200000E136E000E126EFC
:100CD000090E066E0A0E076EFF0E086EFF0E096EF5
:100CE000FF0E0A6EFF0E0B6E0C0E0C6E0D0E0D6ECF
:100CF0000E0E0E6E0F0E0F6E080E54EC05F0100E59
:100D0000096E020E0AEC06F0010E096E060E0A6E5E
:100D1000000E7DEC04F0F8D7066E06A002D0010E9E
:100D200001D0000E016E1A501DEC03F006A202D095
:100D3000010E01D0000E016E1B501DEC03F006A445
:100D400002D0010E01D0000E016E1C501DEC03F00C
:100D500006A602D0010E01D0000E016E1D501DEC42
:100D600003F01200066E06A802D0010E01D0000E9C
:100D7000016E1E501DEC03F006AA02D0010E01D038
:100D8000000E016E1F501DEC03F006AC02D0010EE8
:100D900001D0000E016E20501DEC03F006AE02D013
:100DA000010E01D0000E016E21501DEC03F0120067
:100DB00000EE14F0100EEE6AE806FDE16E0EF66E1F
:100DC0000F0EF76E000EF86E00EE24F010EE04F039
:100DD0000900F5CFEEFFE550E150FAE1000EF86EA4
:100DE000000164EF06F0010E016E17501DEC03F0D8
:100DF000000E016E18501DEC03F0010E016E19502B
:100E00001DEC03F0000E026E0A0E016EA7EC07F057
:100E1000000E016E19501DEC03F01200000E016E61
:100E200017501DEC03F0000E016E18501DEC03F07E
:100E3000010E016E19501DEC03F0000E026E0A0E39
:100E4000016EA7EC07F0000E016E19501DEC03F0C7
:100E50001200076EB4EC05F0080E1618D8A404D0E2
:100E600007508CEC06F008D00750B2EC06F0F3EC1B
:100E700006F00738F00B076E0750B2EC06F0F3EC03
:100E800006F01200076EB4EC05F0080E1618D8A490
:100E900004D007508CEC06F008D00750B2EC06F0F6
:100EA0000EEC07F00738F00B076E0750B2EC06F0B7
:100EB0000EEC07F01200232A000E226E1450235C61
:100EC000D8A002D0000E236E2350010D240EF3246F
:100ED000D96E000EF420DA6EDF5042EC07F01200FB
:100EE000086E1450085CD8B01200000E226E08C0C4
:100EF00023F00850010D240EF324D96E000EF420C7
:100F0000DA6EDF5042EC07F01200086E1550225CDA
:100F1000D8B003D00A0E0818D8B45BEC07F00A0E5C
:100F20000818D8B41200085029EC07F0222A120041
:100F300009D0010E026E5E0E016EA7EC07F00306EB
:100F4000D8A0040603500410D8B41200F2D703D07E
:100F50000106D8A0020601500210D8B41200F8D73A
:100F6000010E42EC07F0000E70EC07F0120080C09A
:020F700090D01F
:020000040020DA
:08000000FFFFFFFFFFFFFFFF00
:020000040030CA
:0E000000FF02111EFF8180FF0FC00FE00F40B6
:00000001FF
