:040000002DEF0AF0E6
:1006000000414443302056616C75653A25346420BE
:10061000204571756976616C656E7420566F6C74D7
:100620006167653A25660A0D0000350E4F6E000EB3
:10063000506E33C04BF034C04CF0A0D14BC0F6FF2D
:100640004CC0F7FF0800F5CF4DF0250E4D18D8A48B
:1006500090D14B4A4C2A4BC0F6FF4CC0F7FF080024
:10066000F5CF4DF02F0E4D641CD03A0E4D6019D0D1
:10067000000E4E6E0FD04E500A0DF3504D24D00F89
:100680004E6E4B4A4C2A4BC0F6FF4CC0F7FF080099
:10069000F5CF4DF02F0E4D643DD1390E4D64EBD7A3
:1006A00039D14E6837D14FC0D9FF50C0DAFFDF5083
:1006B0004D6E020E4F26000E50224D501FEC0AF0D8
:1006C0005BD14FC0D9FF50C0DAFFDECF43F0DDCFA2
:1006D00044F0020E4F26000E502244AE07D0436C69
:1006E000441ED8B0442A2D0E1FEC0AF043C00EF071
:1006F00044C00FF0000E0FBEFF0E106E116E4EC004
:1007000012F00A0EC8EC04F037D14FC0D9FF50C028
:10071000DAFFDECF3FF0DECF40F0DECF41F0DECFBC
:1007200042F0040E4F26000E502242AE0BD0421E65
:10073000411E401E3F6C000E4022412242222D0EDF
:100740001FEC0AF03FC00EF040C00FF041C010F0A7
:1007500042C011F04EC012F00A0EC8EC04F00CD1E9
:100760004FC0D9FF50C0DAFFDECF49F0DDCF4AF0ED
:10077000020E4F26000E502249C00EF04AC00FF064
:10078000106A116A4EC012F00A0EC8EC04F0F4D0E0
:100790004FC0D9FF50C0DAFFDECF45F0DECF46F0C4
:1007A000DECF47F0DECF48F0040E4F26000E502279
:1007B00045C00EF046C00FF047C010F048C011F021
:1007C0004EC012F00A0EC8EC04F0D6D04FC0D9FFCC
:1007D00050C0DAFFDECF49F0DDCF4AF0020E4F26DF
:1007E000000E502249C00EF04AC00FF0106A116A84
:1007F0004EC012F0100EC8EC04F0BED04FC0D9FFAE
:1008000050C0DAFFDECF45F0DECF46F0DECF47F056
:10081000DECF48F0040E4F26000E502245C00EF0E9
:1008200046C00FF047C010F048C011F04EC012F0A3
:10083000100EC8EC04F0A0D04FC0D9FF50C0DAFFB2
:10084000DECF49F0DDCF4AF0020E4F26000E5022D7
:100850004E28D8A402D0100E4E6E49C00EF04AC0E9
:100860000FF0106A116A4EC012F0020EC8EC04F0CC
:1008700083D04FC0D9FF50C0DAFFDECF45F0DECFC6
:1008800046F0DECF47F0DECF48F0040E4F26000ED4
:1008900050224E28D8A402D0200E4E6E45C00EF035
:1008A00046C00FF047C010F048C011F04EC012F023
:1008B000020EC8EC04F060D04FC0D9FF50C0DAFF80
:1008C000DECF3AF0DECF3BF0DDCF3CF0030E4F261B
:1008D000000E50223AC02CF03BC02DF03CC02EF050
:1008E000EDEC07F049D04FC0D9FF50C0DAFFDECFA2
:1008F0003DF0DDCF3EF0020E4F26000E50223DC0EF
:1009000002F03EC003F0E1EC09F036D0250E1FECFA
:100910000AF032D04D50250AD8B4F8D7670AD8B4B7
:10092000A8D7010AD8B4BFD6070AD8B4EED6020AAF
:10093000D8B4C2D7150AD8B4D6D7060AD8B428D79F
:100940000D0AD8B45BD73A0AD8B476D7010AD8B41E
:10095000AAD6070AD8B4B5D6020AD8B4ADD7150AB4
:10096000D8B4C1D7060AD8B4FBD60D0AD8B42ED74E
:1009700003D04D501FEC0AF04B4A4C2A4BC0F6FFF7
:100980004CC0F7FF0800F5500009D8B4120056D645
:100990002A6E000E2B6E020E2A18D8B434D037D02F
:1009A00012C013F0FF0E1326010E146E000E156E0A
:1009B000132A03D0D89014361536132EFBD714C043
:1009C00016F015C017F0000E17BEFF0E186E196E48
:1009D0000E5016141A6E0F5017141B6E1050181468
:1009E0001C6E115019141D6E1A501B101C101D1076
:1009F000D8B402D0010E01D0000E2B6E2B50300F58
:100A00001FEC0AF012061250D8B41200C9D70E50CB
:100A10000F1010101110D8A404D0300E1FEC0AF0E3
:100A20001200000E2B6E4DD00E500F101010111032
:100A3000D8B435D02B50010D1E0EF324D96E000E04
:100A4000F420DA6E0EC001F00FC002F010C003F007
:100A500011C004F02A50056E066A076A086A02ECA3
:100A600009F001502A02F35000080E24DF6E0EC078
:100A700001F00FC002F010C003F011C004F02A50C2
:100A8000056E066A076A086A02EC09F001C00EF0FA
:100A900002C00FF003C010F004C011F011D01228F2
:100AA000D8B45AD00A0E126401D056D02B50010D82
:100AB0001E0EF324D96E000EF420DA6E000EDF6EE7
:100AC0002B2A12502B5CD8B047D0AED7FF0E136E36
:100AD000FF0E146E2B50156E166A13501526145007
:100AE00016221E0E1524D96E000E1620DA6E0A0E7E
:100AF000DF6015D0FF0E136EFF0E146E2B50156EB7
:100B0000166A13501526145016221E0E1524D96E7F
:100B1000000E1620DA6EDF50176E300E14D0FF0E66
:100B2000136EFF0E146E2B50156E166A1350152699
:100B3000145016221E0E1524D96E000E1620DA6EE1
:100B4000DF50176E370E1724286E296A000E2922EF
:100B500028501FEC0AF02B062B50D8B41200B6D741
:100B600017C01BF01C6A1D6A16341B3601E31C807B
:100B70001B50206E1AC01BF01C6A1D6A19341B36EC
:100B800001E31C801B501F6E2050D8B40BD01F50A7
:100B9000205CD8B00ED0205000081F241B6E180E09
:100BA0001B6407D018C015F019C016F01AC017F052
:100BB00012001F50D8B40BD020501F5CD8B00ED0FC
:100BC0001F50000820241B6E180E1B6407D015C090
:100BD00015F016C016F017C017F01200060E1E6EA4
:100BE00017BE1E8E1ABE1E8C168EFF0E1516FF0E19
:100BF0001616000E1716198EFF0E1816FF0E191670
:100C0000000E1A161F50205CD8B01BD0D890183692
:100C100019361A361F0620501F18D8B40DD01E06DC
:100C20001EC01BF0070E1B16D8B406D0EFD7D89005
:100C3000173216321532202A1F502018D8B41FD070
:100C4000F6D720501F5CD8B01AD0D890153616367B
:100C50001736200620501F18D8B40DD01E061EC00F
:100C60001BF0070E1B16D8B406D0EFD7D8901A3257
:100C7000193218321F2A1F502018D8A4F7D71EAED9
:100C80000CD0FF0E151AFF0E161AFF0E171A010EC2
:100C90001526000E1622000E17221EAC0CD0FF0ED9
:100CA000181AFF0E191AFF0E1A1A010E1826000E36
:100CB0001922000E1A22000E1E6E1550182616500C
:100CC000192217501A221AAE0ED0FF0E181AFF0E54
:100CD000191AFF0E1A1A010E1826000E1922000EFC
:100CE0001A22010E1E6E18C001F019C002F01AC0BF
:100CF00003F020C004F01EC005F05FEC08F001C056
:100D000015F002C016F003C017F012001EC020F04C
:100D1000216A226A1D34203601E3218020502A6E88
:100D20002A50D8A409D0000E1C6E000E1D6E000EB5
:100D30001E6E000E1F6E1200170E206E1CC021F0DA
:100D40001DC022F01EC023F02028246E04D0D890AD
:100D5000233222322132242EFAD72150256E1D8EC5
:100D6000FF0E1C16FF0E1D16000E1E161C50266EC2
:100D70001D50276E1E50286E296A8E0E2A5E2AAEDE
:100D800016D02A50800A8F0FD8B009D0000E1C6EE2
:100D9000000E1D6E000E1E6E000E1F6E1200D8900B
:100DA00029322832273226322A3EF9D715D0170E9B
:100DB0002A640FD0000E1C6E000E1D6E000E1E6EFB
:100DC000000E1F6E1200D890263627362836293698
:100DD0002A062A50D8A4F7D72550D8B408D0291EFF
:100DE000281E271E266C000E27222822292226C014
:100DF0001CF027C01DF028C01EF029C01FF01200F3
:100E00000FC013F0146A156A0E34133601E3148010
:100E10001350166E1650D8A407D0000E0D6E000E9B
:100E20000E6E000E0F6E120012C013F0146A156AD7
:100E30001134133601E3148013501B6E1B50D8A4D9
:100E400007D0000E0D6E000E0E6E000E0F6E12001B
:100E50001B507B0F16260FC01BF012501B1A800E62
:100E60001B160E8E118EFF0E1016FF0E1116000EA1
:100E70001216000E176E000E186E000E196E070E79
:100E80001A6E0DA006D010501726115018221250BD
:100E90001922D8900F320E320D32D89010361136FA
:100EA00012361A2EEED7090E1A6E0DA006D010506B
:100EB00017261150182212501922D8900F320E32D4
:100EC0000D32D8901932183217321A2EEED717C0B9
:100ED00001F018C002F019C003F016C004F01BC0E6
:100EE00005F05FEC08F001C00DF002C00EF003C089
:100EF0000FF012001EC022F0236A246A1D3422362D
:100F000001E323802250296E2950D8A407D0000E77
:100F10001C6E000E1D6E000E1E6E120021C022F00F
:100F2000236A246A2034223601E3238022502A6E69
:100F30002A50D8A407D0000E1C6E000E1D6E000EA5
:100F40001E6E1200000E266E000E276E000E286E1A
:100F50002A50890F295E1EC02AF021502A1A800EBD
:100F60002A161D8EFF0E1C16FF0E1D16000E1E16D5
:100F7000208EFF0E1F16FF0E2016000E2116180ED3
:100F8000256ED8902636273628361F501C5C2050F8
:100F90001D5821501E58D8A007D01F501C5E20504D
:100FA0001D5A21501E5A2680D8901C361D361E36DA
:100FB000252EE7D726C001F027C002F028C003F095
:100FC00029C004F02AC005F05FEC08F001C01CF055
:100FD00002C01DF003C01EF012002CC01CF02DC07A
:100FE0001DF02EC01EF086EC06F01CC02FF01DC0B8
:100FF00030F01EC031F01FC032F02FC00EF030C0F4
:101000000FF031C010F032C011F0FF0E126E0A0E58
:10101000C8EC04F02E0E1FEC0AF02FC009F030C00F
:101020000AF031C00BF032C00CF07EEC09F009C0C0
:1010300012F00AC013F00BC014F0F3EC09F012C068
:1010400015F013C016F014C017F02CC018F02DC006
:1010500019F02EC01AF0B0EC05F015C02CF016C037
:101060002DF017C02EF0240E106E740E116E490E66
:10107000126E2CC00DF02DC00EF02EC00FF000EC43
:1010800007F00DC01CF00EC01DF00FC01EF086EC66
:1010900006F01CC02FF01DC030F01EC031F01FC084
:1010A00032F02FC00EF030C00FF031C010F032C05F
:1010B00011F0FF0E126E0A0EC8EC04F0120004507C
:1010C000D8B405D0015002100310D8A40CD0000EE3
:1010D000016E000E026E000E036E1200042AD890FC
:1010E000033202320132000E0114066E000E0214A9
:1010F000076EFE0E0314086E065007100810D8B4D1
:101100000CD0ECD7042A010E0126000E0222000E9C
:101110000322D890033202320132000E0114066E0F
:10112000000E0214076EFF0E0314086E065007101F
:101130000810D8B406D0E6D70406D8900136023697
:10114000033602BE03D0020E0460F6D704A0029E4E
:10115000D8900432045003120550D8A4038E01C065
:1011600001F002C002F003C003F0120026EC0AF006
:10117000800E176E250E186E000E196E000E1A6E78
:1011800005EC0AF0000EC8EC09F003C054F004C0EE
:1011900055F0000E106EA00E116E400E126E54C06F
:1011A00009F055C00AF0ACEC09F009C00DF00AC016
:1011B0000EF00BC00FF000EC07F00DC01CF00EC0DD
:1011C0001DF00FC01EF0C00E1F6E7F0E206E440E6D
:1011D000216E7AEC07F01CC051F01DC052F01EC009
:1011E00053F0010E336E060E346E54C035F055C008
:1011F00036F051C037F052C038F053C039F015EC1A
:1012000003F0C0D7000E096E000E0A6E000E0B6EC2
:10121000000E0C6E0550061007100810D8B42AD026
:10122000010E0D6E06D0D890053606360736083604
:101230000D2A08AEF8D7D89009360A360B360C3688
:101240000550015C065002580750035808500458D6
:10125000D8A009D00550015E0650025A0750035A23
:101260000850045A0980D8900832073206320532F5
:101270000D2EE1D709C001F00AC002F00BC003F047
:101280000CC004F012001150101006E1600E0E5C4C
:10129000090E0F58D8A02DD011502BE10E04C20E0C
:1012A0000F58010E1058D8B024D0000E016E2D0E2C
:1012B000026E310E036E010E046E0EC012F00FC0EE
:1012C00013F010C014F011C015F0060ED8901236AD
:1012D000133614361536E82EF9D712C005F013C0B0
:1012E00006F014C007F015C008F002EC09F0010484
:1012F00001D01F0E166E16C0AFFF12008E0E116EBB
:1013000006D0D8900C320B320A320932112A000E64
:1013100009140D6E000E0A140E6E000E0B140F6EE3
:10132000FF0E0C14106E0D500E100F101010D8A4DC
:10133000E8D709C001F00AC002F00BC003F011C0E9
:1013400004F0000E056E5FEC08F001C009F002C069
:101350000AF003C00BF01200000E0C6E0AAE06D0AD
:10136000096C0A1ED8B00A2A010E0C6E09C001F0E1
:101370000AC002F0036A8E0E046E0CC005F05FEC2A
:1013800008F001C009F002C00AF003C00BF012001F
:10139000076E0744E846FC0BC26EC280000E026E68
:1013A0000A0E016E16EC0AF0C282C2B2FED7C45019
:1013B000066E056AC3500524036E000E0620046EF7
:1013C000120009D002C0D9FF03C0DAFFDF501FECC2
:1013D0000AF0024A032A02C0D9FF03C0DAFFDF5035
:1013E000D8B41200EFD7125013101410D8B406D08E
:1013F000000E121A000E131A800E141A12C012F0E8
:1014000013C013F014C014F01200800E946E200E5E
:10141000AC6E900EAB6E17C00EF018C00FF019C076
:1014200010F01AC011F043EC09F0120003D00106CD
:10143000D8A0020601500210D8B41200F8D7016EED
:101440009EA8FED79E9801C0ADFF1200000EC26E8E
:10145000000EC16E820EC06E1200000EF86E00010A
:04146000B6EF08F0EB
:020000040020DA
:08000000FFFFFFFFFFFFFFFF00
:020000040030CA
:0E000000FF02111EFF8180FF0FC00FE00F40B6
:00000001FF
