:0400000030EF09F0E4
:1006000000436F756E743D25346400446563696D05
:10061000616C00002E0E426E000E436E2CC03EF048
:100620002DC03FF089D13EC0F6FF3FC0F7FF080064
:10063000F5CF40F0250E4018D8A479D13E4A3F2A84
:100640003EC0F6FF3FC0F7FF0800F5CF40F02F0E89
:1006500040641CD03A0E406019D0000E416E0FD09D
:1006600041500A0DF3504024D00F416E3E4A3F2ABC
:100670003EC0F6FF3FC0F7FF0800F5CF40F02F0E59
:10068000406426D1390E4064EBD722D1416820D195
:1006900042C0D9FF43C0DAFFDF50406E020E42264F
:1006A000000E43224050F2EC09F044D142C0D9FF81
:1006B00043C0DAFFDECF36F0DDCF37F0020E422640
:1006C000000E432237AE07D0366C371ED8B0372A1B
:1006D0002D0EF2EC09F036C00EF037C00FF0000E10
:1006E0000FBEFF0E106E116E41C012F00A0EA6EC86
:1006F00004F020D142C0D9FF43C0DAFFDECF32F090
:10070000DECF33F0DECF34F0DECF35F0040E4226FC
:10071000000E432235AE0BD0351E341E331E326C14
:10072000000E3322342235222D0EF2EC09F032C0B5
:100730000EF033C00FF034C010F035C011F041C0DE
:1007400012F00A0EA6EC04F0F5D042C0D9FF43C067
:10075000DAFFDECF3CF0DDCF3DF0020E4226000E88
:1007600043223CC00EF03DC00FF0106A116A41C038
:1007700012F00A0EA6EC04F0DDD042C0D9FF43C04F
:10078000DAFFDECF38F0DECF39F0DECF3AF0DECF61
:100790003BF0040E4226000E432238C00EF039C052
:1007A0000FF03AC010F03BC011F041C012F00A0E39
:1007B000A6EC04F0BFD042C0D9FF43C0DAFFDECFC1
:1007C0003CF0DDCF3DF0020E4226000E43223CC03D
:1007D0000EF03DC00FF0106A116A41C012F0100E09
:1007E000A6EC04F0A7D042C0D9FF43C0DAFFDECFA9
:1007F00038F0DECF39F0DECF3AF0DECF3BF0040E3A
:100800004226000E432238C00EF039C00FF03AC025
:1008100010F03BC011F041C012F0100EA6EC04F035
:1008200089D042C0D9FF43C0DAFFDECF3CF0DDCF34
:100830003DF0020E4226000E43224128D8A402D0E9
:10084000100E416E3CC00EF03DC00FF0106A116AF0
:1008500041C012F0020EA6EC04F06CD042C0D9FFE9
:1008600043C0DAFFDECF38F0DECF39F0DECF3AF02A
:10087000DECF3BF0040E4226000E43224128D8A4CE
:1008800002D0100E416E38C00EF039C00FF03AC0E1
:1008900010F03BC011F041C012F0020EA6EC04F0C3
:1008A00049D042C0D9FF43C0DAFFDECF30F0DDCF00
:1008B00031F0020E4226000E432230C009F031C052
:1008C0000AF0B3EC09F036D0250EF2EC09F032D084
:1008D0004050250AD8B4F8D7670AD8B4BFD7010A60
:1008E000D8B4D6D6070AD8B405D7020AD8B422D0CD
:1008F000150AD8B4D6D7060AD8B43FD70D0AD8B44B
:1009000072D73A0AD8B48DD7010AD8B4C1D6070A2B
:10091000D8B4CCD6020AD8B40DD0150AD8B4C1D7F1
:10092000060AD8B412D70D0AD8B445D703D0405020
:10093000F2EC09F03E4A3F2A3EC0F6FF3FC0F7FF07
:100940000800F5500009D8B412006DD62A6E000ECA
:100950002B6E020E2A18D8B434D037D012C013F040
:10096000FF0E1326010E146E000E156E132A03D00F
:10097000D89014361536132EFBD714C016F015C0B8
:1009800017F0000E17BEFF0E186E196E0E501614DB
:100990001A6E0F5017141B6E105018141C6E115045
:1009A00019141D6E1A501B101C101D10D8B402D043
:1009B000010E01D0000E2B6E2B50300FF2EC09F01F
:1009C00012061250D8B41200C9D70E500F101010D2
:1009D0001110D8A404D0300EF2EC09F01200000E71
:1009E0002B6E4DD00E500F1010101110D8B435D002
:1009F0002B50010D1E0EF324D96E000EF420DA6E7A
:100A00000EC001F00FC002F010C003F011C004F0DE
:100A10002A50056E066A076A086A0DEC08F0015054
:100A20002A02F35000080E24DF6E0EC001F00FC042
:100A300002F010C003F011C004F02A50056E066ADF
:100A4000076A086A0DEC08F001C00EF002C00FF052
:100A500003C010F004C011F011D01228D8B45AD03D
:100A60000A0E126401D056D02B50010D1E0EF32435
:100A7000D96E000EF420DA6E000EDF6E2B2A1250B3
:100A80002B5CD8B047D0AED7FF0E136EFF0E146E9E
:100A90002B50156E166A13501526145016221E0E72
:100AA0001524D96E000E1620DA6E0A0EDF6015D0FE
:100AB000FF0E136EFF0E146E2B50156E166A135038
:100AC0001526145016221E0E1524D96E000E16205F
:100AD000DA6EDF50176E300E14D0FF0E136EFF0E5D
:100AE000146E2B50156E166A1350152614501622CC
:100AF0001E0E1524D96E000E1620DA6EDF50176E0A
:100B0000370E1724286E296A000E29222850F2EC8D
:100B100009F02B062B50D8B41200B6D7056E053855
:100B2000E8461F0B046E0550070B056E96D001506A
:100B3000D8B40DD005C002F0010E036E022A02D017
:100B4000D8900336022EFCD703508912120005C03C
:100B500002F0010E036E022A02D0D8900336022E54
:100B6000FCD70350FF0A891612000150D8B40DD0EB
:100B700005C002F0010E036E022A02D0D89003369F
:100B8000022EFCD703508A12120005C002F0010E9B
:100B9000036E022A02D0D8900336022EFCD70350EF
:100BA000FF0A8A1612000150D8B40DD005C002F019
:100BB000010E036E022A02D0D8900336022EFCD713
:100BC00003508B12120005C002F0010E036E022AC0
:100BD00002D0D8900336022EFCD70350FF0A8B16A2
:100BE00012000150D8B40DD005C002F0010E036E02
:100BF000022A02D0D8900336022EFCD703508C1262
:100C0000120005C002F0010E036E022A02D0D89035
:100C10000336022EFCD70350FF0A8C161200015037
:100C2000D8B40DD005C002F0010E036E022A02D026
:100C3000D8900336022EFCD703508D12120005C047
:100C400002F0010E036E022A02D0D8900336022E63
:100C5000FCD70350FF0A8D1612000450000AD8B4C6
:100C600066D7010AD8B481D7030AD8B49CD7010A41
:100C7000D8B4B7D7070AD8A41200D1D7056E053863
:100C8000E8461F0B046E0550070B056E96D0015009
:100C9000D8B40DD005C002F0010E036E022A02D0B6
:100CA000D8900336022EFCD703509212120005C0D2
:100CB00002F0010E036E022A02D0D8900336022EF3
:100CC000FCD70350FF0A921612000150D8B40DD081
:100CD00005C002F0010E036E022A02D0D89003363E
:100CE000022EFCD703509312120005C002F0010E31
:100CF000036E022A02D0D8900336022EFCD703508E
:100D0000FF0A931612000150D8B40DD005C002F0AE
:100D1000010E036E022A02D0D8900336022EFCD7B1
:100D200003509412120005C002F0010E036E022A55
:100D300002D0D8900336022EFCD70350FF0A941637
:100D400012000150D8B40DD005C002F0010E036EA0
:100D5000022A02D0D8900336022EFCD703509512F7
:100D6000120005C002F0010E036E022A02D0D890D4
:100D70000336022EFCD70350FF0A951612000150CD
:100D8000D8B40DD005C002F0010E036E022A02D0C5
:100D9000D8900336022EFCD703509612120005C0DD
:100DA00002F0010E036E022A02D0D8900336022E02
:100DB000FCD70350FF0A961612000450000AD8B45C
:100DC00066D7010AD8B481D7030AD8B49CD7010AE0
:100DD000D8B4B7D7070AD8A41200D1D7056E000E31
:100DE000046E0538E8461F0B036E0550070B056EB1
:100DF0004CD005C001F0010E026E012A02D0D8903D
:100E00000236012EFCD7025080140009D8B43BD022
:100E100029D0046E4AD005C001F0010E026E012AED
:100E200002D0D8900236012EFCD70250811428D06F
:100E300005C001F0010E026E012A02D0D8900236E0
:100E4000012EFCD7025082141BD005C001F0010E08
:100E5000026E012A02D0D8900236012EFCD7025031
:100E600083140ED0010ED5D705C001F0010E026E1D
:100E7000012A02D0D8900236012EFCD702508414E9
:100E80000009D8A4EFD7000EC4D70350000AD8B485
:100E9000B0D7010AD8B4BFD7030AD8B4C9D7010A5A
:100EA000D8B4D3D7070AD8B4DFD704501200106ED5
:100EB00010C049F006C04AF007C04BF008C04CF023
:100EC00009C04DF00AC04EF00BC04FF00CC050F0FE
:100ED0000DC051F00EC052F00FC053F00828D8B426
:100EE00009D00928D8B406D00A28D8B403D00B28D2
:100EF000D8A403D0040E486E16D0080E486E000E1B
:100F0000016E08503EEC06F0000E016E09503EECFA
:100F100006F0000E016E0A503EEC06F0000E016E67
:100F20000B503EEC06F0000E016E10503EEC06F049
:100F3000000E016E06503EEC06F0000E016E0750EA
:100F40003EEC06F0000E016E0C503EEC06F0000E7A
:100F5000016E0D503EEC06F0000E016E0E503EECA0
:100F600006F0000E016E0F503EEC06F012004A280B
:100F7000D8B44CD0010E016E53503EEC06F0000E7A
:100F8000016E49508EEC05F0010E016E4A508EEC58
:100F900005F0000E016E4B508EEC05F0000E026E57
:100FA0000A0E016E14EC0AF0010E016E4B508EEC2D
:100FB00005F0000E026E0A0E016E14EC0AF053509A
:100FC000EEEC06F0066E040E4818D8A416D0000EFB
:100FD000016E4B508EEC05F0000E026E0A0E016E93
:100FE00014EC0AF0010E016E4B508EEC05F0000E71
:100FF000026E0A0E016E14EC0AF00650D8A4C9D78E
:10100000000E016E53503EEC06F01200000E046E0E
:10101000010E036E05EC0AF01200000E096E000EC0
:101020000A6E000E0B6E000E0C6E055006100710B7
:101030000810D8B42AD0010E0D6E06D0D89005360F
:101040000636073608360D2A08AEF8D7D890093686
:101050000A360B360C360550015C06500258075014
:10106000035808500458D8A009D00550015E065016
:10107000025A0750035A0850045A0980D89008327F
:101080000732063205320D2EE1D709C001F00AC041
:1010900002F00BC003F00CC004F01200000E456E0D
:1010A000000E446E090E066E0A0E076EFF0E086EE5
:1010B000FF0E096EFF0E0A6EFF0E0B6E0C0E0C6E0D
:1010C0000D0E0D6E0E0E0E6E0F0E0F6E080E57ECFF
:1010D00007F0100E096E020E8AEC08F00B0E096E76
:1010E000060E0A6EB3EC09F0010EDDEC09F0010EFC
:1010F0002C6E060E2D6E44C02EF045C02FF00AEC6B
:1011000003F0010E046EF40E036E05EC0AF0444A7F
:10111000452AEAD70A6E09C047F00AC046F0020E17
:101120000A6408D009500F0B900F586E09500F0B2E
:10113000D00F596E000E046E640E036E05EC0AF0BB
:10114000080E4818D8A404D0380E9AEC09F009D03B
:10115000040E4818D8A405D0B7EC08F0280E9AEC75
:1011600009F00E0E9AEC09F01DEC0AF01200300E98
:101170000AEC09F066EC09F0000E046E640E036ED2
:1011800005EC0AF0300E0AEC09F066EC09F0000EEE
:10119000026EC80E016E14EC0AF0300E0AEC09F073
:1011A00066EC09F0000E026EC80E016E14EC0AF037
:1011B000200E0AEC09F066EC09F0000E026EC80E73
:1011C000016E14EC0AF01200066E06A002D0010EA9
:1011D00001D0000E016E4C508EEC05F006A202D03C
:1011E000010E01D0000E016E4D508EEC05F006A4EC
:1011F00002D0010E01D0000E016E4E508EEC05F0B3
:1012000006A602D0010E01D0000E016E4F508EECEA
:1012100005F01200066E06A802D0010E01D0000EE5
:10122000016E50508EEC05F006AA02D0010E01D0DE
:10123000000E016E51508EEC05F006AC02D0010E8E
:1012400001D0000E016E52508EEC05F006AE02D0B9
:10125000010E01D0000E016E53508EEC05F012000D
:1012600000EE46F0100EEE6AE806FDE1480EF66E5E
:10127000140EF76E000EF86E00EE56F010EE04F04D
:101280000900F5CFEEFFE550E150FAE1000EF86EEF
:1012900000014EEF08F0010E016E49508EEC05F092
:1012A000000E016E4A508EEC05F0010E016E4B509F
:1012B0008EEC05F0000E026E0A0E016E14EC0AF0C0
:1012C000000E016E4B508EEC05F01200000E016E08
:1012D00049508EEC05F0000E016E4A508EEC05F080
:1012E000010E016E4B508EEC05F0000E026E0A0EE0
:1012F000016E14EC0AF0000E016E4B508EEC05F0FE
:101300001200076EB7EC07F0080E4818D8A404D0F6
:101310000750E4EC08F008D007500AEC09F04BEC59
:1013200009F00738F00B076E07500AEC09F04BEC98
:1013300009F01200076EB7EC07F0080E4818D8A4A1
:1013400004D00750E4EC08F008D007500AEC09F08C
:1013500066EC09F00738F00B076E07500AEC09F04D
:1013600066EC09F012000AD009C0F6FF0AC0F7FFC8
:101370000800F550F2EC09F0094A0A2A09C0F6FF04
:101380000AC0F7FF0800F5500009D8B41200ECD7E6
:10139000552A000E546E4650555CD8A002D0000E5F
:1013A000556E5550010D560EF324D96E000EF420E3
:1013B000DA6EDF509AEC09F01200086E4650085CB5
:1013C000D8B01200000E546E08C055F00850010D40
:1013D000560EF324D96E000EF420DA6EDF509AEC2C
:1013E00009F01200086E4750545CD8B003D00A0EC2
:1013F0000818D8B4C8EC09F00A0E0818D8B41200BE
:10140000085081EC09F0542A120009D0010E026E36
:101410005E0E016E14EC0AF00306D8A00406035019
:101420000410D8B41200F2D703D00106D8A00206E7
:1014300001500210D8B41200F8D7010E9AEC09F04E
:0C144000000EDDEC09F0120080C090D01E
:020000040020DA
:08000000FFFFFFFFFFFFFFFF00
:020000040030CA
:0E000000FF02111EFF8180FF0FC00FE00F40B6
:00000001FF
