:040000007AEF09F09A
:10060000000A0D456570726F6D2057726974652020
:10061000537472696E673A202573000A0D45657040
:10062000726F6D205265616420537472696E673A0F
:0506300020257300000D
:10063600350E4C6E000E4D6E33C048F034C049F096
:10064600A0D148C0F6FF49C0F7FF0800F5CF4AF031
:10065600250E4A18D8A490D1484A492A48C0F6FF20
:1006660049C0F7FF0800F5CF4AF02F0E4A641CD0A8
:100676003A0E4A6019D0000E4B6E0FD04B500A0D41
:10068600F3504A24D00F4B6E484A492A48C0F6FF19
:1006960049C0F7FF0800F5CF4AF02F0E4A643DD156
:1006A600390E4A64EBD739D14B6837D14CC0D9FFE4
:1006B6004DC0DAFFDF504A6E020E4C26000E4D2268
:1006C6004A50E1EC09F05BD14CC0D9FF4DC0DAFFCE
:1006D600DECF40F0DDCF41F0020E4C26000E4D225B
:1006E60041AE07D0406C411ED8B0412A2D0EE1EC38
:1006F60009F040C00EF041C00FF0000E0FBEFF0E15
:10070600106E116E4BC012F00A0ECEEC04F037D10B
:100716004CC0D9FF4DC0DAFFDECF3CF0DECF3DF056
:10072600DECF3EF0DECF3FF0040E4C26000E4D220B
:100736003FAE0BD03F1E3E1E3D1E3C6C000E3D22C2
:100746003E223F222D0EE1EC09F03CC00EF03DC0EA
:100756000FF03EC010F03FC011F04BC012F00A0E71
:10076600CEEC04F00CD14CC0D9FF4DC0DAFFDECF81
:1007760046F0DDCF47F0020E4C26000E4D2246C055
:100786000EF047C00FF0106A116A4BC012F00A0E45
:10079600CEEC04F0F4D04CC0D9FF4DC0DAFFDECF6A
:1007A60042F0DECF43F0DECF44F0DECF45F0040E5C
:1007B6004C26000E4D2242C00EF043C00FF044C03E
:1007C60010F045C011F04BC012F00A0ECEEC04F04A
:1007D600D6D04CC0D9FF4DC0DAFFDECF46F0DDCF14
:1007E60047F0020E4C26000E4D2246C00EF047C0C2
:1007F6000FF0106A116A4BC012F0100ECEEC04F026
:10080600BED04CC0D9FF4DC0DAFFDECF42F0DECFFE
:1008160043F0DECF44F0DECF45F0040E4C26000E4A
:100826004D2242C00EF043C00FF044C010F045C048
:1008360011F04BC012F0100ECEEC04F0A0D04CC05C
:10084600D9FF4DC0DAFFDECF46F0DDCF47F0020E0E
:100856004C26000E4D224B28D8A402D0100E4B6E0B
:1008660046C00EF047C00FF0106A116A4BC012F076
:10087600020ECEEC04F083D04CC0D9FF4DC0DAFF97
:10088600DECF42F0DECF43F0DECF44F0DECF45F0E0
:10089600040E4C26000E4D224B28D8A402D0200E62
:1008A6004B6E42C00EF043C00FF044C010F045C07E
:1008B60011F04BC012F0020ECEEC04F060D04CC02A
:1008C600D9FF4DC0DAFFDECF37F0DECF38F0DDCF0F
:1008D60039F0030E4C26000E4D2237C02CF038C0DE
:1008E6002DF039C02EF080EC07F049D04CC0D9FF6E
:1008F6004DC0DAFFDECF3AF0DDCF3BF0020E4C26DC
:10090600000E4D223AC002F03BC003F0A4EC09F001
:1009160036D0250EE1EC09F032D04A50250AD8B47B
:10092600F8D7670AD8B4A8D7010AD8B4BFD6070A39
:10093600D8B4EED6020AD8B4C2D7150AD8B4D6D7D8
:10094600060AD8B428D70D0AD8B45BD73A0AD8B461
:1009560076D7010AD8B4AAD6070AD8B4B5D6020AF9
:10096600D8B4ADD7150AD8B4C1D7060AD8B4FBD6C1
:100976000D0AD8B42ED703D04A50E1EC09F0484A04
:10098600492A48C0F6FF49C0F7FF0800F55000099C
:10099600D8B4120056D62A6E000E2B6E020E2A18F6
:1009A600D8B434D037D012C013F0FF0E1326010E80
:1009B600146E000E156E132A03D0D8901436153611
:1009C600132EFBD714C016F015C017F0000E17BE75
:1009D600FF0E186E196E0E5016141A6E0F5017145D
:1009E6001B6E105018141C6E115019141D6E1A50DF
:1009F6001B101C101D10D8B402D0010E01D0000E21
:100A06002B6E2B50300FE1EC09F012061250D8B4C1
:100A16001200C9D70E500F1010101110D8A404D010
:100A2600300EE1EC09F01200000E2B6E4DD00E5088
:100A36000F1010101110D8B435D02B50010D1E0E0A
:100A4600F324D96E000EF420DA6E0EC001F00FC04A
:100A560002F010C003F011C004F02A50056E066AB9
:100A6600076A086A49EC08F001502A02F3500008A8
:100A76000E24DF6E0EC001F00FC002F010C003F0AE
:100A860011C004F02A50056E066A076A086A49EC26
:100A960008F001C00EF002C00FF003C010F004C051
:100AA60011F011D01228D8B45AD00A0E126401D00F
:100AB60056D02B50010D1E0EF324D96E000EF420D5
:100AC600DA6E000EDF6E2B2A12502B5CD8B047D0A0
:100AD600AED7FF0E136EFF0E146E2B50156E166AF0
:100AE60013501526145016221E0E1524D96E000E0C
:100AF6001620DA6E0A0EDF6015D0FF0E136EFF0E9B
:100B0600146E2B50156E166A1350152614501622A5
:100B16001E0E1524D96E000E1620DA6EDF50176EE3
:100B2600300E14D0FF0E136EFF0E146E2B50156E82
:100B3600166A13501526145016221E0E1524D96E49
:100B4600000E1620DA6EDF50176E370E1724286E49
:100B5600296A000E29222850E1EC09F02B062B50B9
:100B6600D8B41200B6D717C01BF01C6A1D6A16341B
:100B76001B3601E31C801B50206E1AC01BF01C6A3A
:100B86001D6A19341B3601E31C801B501F6E205052
:100B9600D8B40BD01F50205CD8B00ED0205000081F
:100BA6001F241B6E180E1B6407D018C015F019C041
:100BB60016F01AC017F012001F50D8B40BD02050F0
:100BC6001F5CD8B00ED01F50000820241B6E180ED4
:100BD6001B6407D015C015F016C016F017C017F025
:100BE6001200060E1E6E17BE1E8E1ABE1E8C168EA6
:100BF600FF0E1516FF0E1616000E1716198EFF0E8F
:100C06001816FF0E1916000E1A161F50205CD8B0C3
:100C16001BD0D890183619361A361F0620501F18C2
:100C2600D8B40DD01E061EC01BF0070E1B16D8B476
:100C360006D0EFD7D890173216321532202A1F5019
:100C46002018D8B41FD0F6D720501F5CD8B01AD0C1
:100C5600D890153616361736200620501F18D8B4E9
:100C66000DD01E061EC01BF0070E1B16D8B406D0EC
:100C7600EFD7D8901A32193218321F2A1F5020186F
:100C8600D8A4F7D71EAE0CD0FF0E151AFF0E161AF3
:100C9600FF0E171A010E1526000E1622000E172239
:100CA6001EAC0CD0FF0E181AFF0E191AFF0E1A1AD8
:100CB600010E1826000E1922000E1A22000E1E6EB4
:100CC600155018261650192217501A221AAE0ED091
:100CD600FF0E181AFF0E191AFF0E1A1A010E182601
:100CE600000E1922000E1A22010E1E6E18C001F007
:100CF60019C002F01AC003F020C004F01EC005F0AF
:100D0600F2EC07F001C015F002C016F003C017F0B0
:100D160012001AC01CF01D6A1E6A19341C3601E343
:100D26001D801C50266E2650D8A409D0000E186EC1
:100D3600000E196E000E1A6E000E1B6E1200170EB4
:100D46001C6E18C01DF019C01EF01AC01FF01C281A
:100D5600206E04D0D8901F321E321D32202EFAD7B4
:100D66001D50216E198EFF0E1816FF0E1916000E55
:100D76001A161850226E1950236E1A50246E256AC0
:100D86008E0E265E26AE16D02650800A8F0FD8B05D
:100D960009D0000E186E000E196E000E1A6E000EA7
:100DA6001B6E1200D8902532243223322232263E80
:100DB600F9D715D0170E26640FD0000E186E000E48
:100DC600196E000E1A6E000E1B6E1200D890223697
:100DD60023362436253626062650D8A4F7D72150A2
:100DE600D8B408D0251E241E231E226C000E2322F2
:100DF6002422252222C018F023C019F024C01AF09C
:100E060025C01BF012000BC00FF0106A116A0A34DD
:100E16000F3601E310800F50126E1250D8A407D07F
:100E2600000E096E000E0A6E000E0B6E12000EC04A
:100E36000FF0106A116A0D340F3601E310800F505F
:100E4600176E1750D8A407D0000E096E000E0A6E52
:100E5600000E0B6E120017507B0F12260BC017F0F8
:100E66000E50171A800E17160A8E0D8EFF0E0C16D0
:100E7600FF0E0D16000E0E16000E136E000E146EEB
:100E8600000E156E070E166E09A006D00C5013261E
:100E96000D5014220E501522D8900B320A32093208
:100EA600D8900C360D360E36162EEED7090E166E67
:100EB60009A006D00C5013260D5014220E501522F0
:100EC600D8900B320A320932D890153214321332C6
:100ED600162EEED713C001F014C002F015C003F0B1
:100EE60012C004F017C005F0F2EC07F001C009F0DB
:100EF60002C00AF003C00BF012002CC018F02DC07F
:100F060019F02EC01AF08CEC06F018C02FF019C09C
:100F160030F01AC031F01BC032F02FC00EF030C0D6
:100F26000FF031C010F032C011F0FF0E126E0A0E33
:100F3600CEEC04F02E0EE1EC09F02FC009F030C023
:100F46000AF031C00BF032C00CF002EC09F009C017
:100F560012F00AC013F00BC014F0B6EC09F012C080
:100F660015F013C016F014C017F02CC018F02DC0E1
:100F760019F02EC01AF0B6EC05F015C02CF016C00C
:100F86002DF017C02EF0240E0C6E740E0D6E490E49
:100F96000E6E2CC009F02DC00AF02EC00BF006EC28
:100FA60007F009C018F00AC019F00BC01AF08CEC53
:100FB60006F018C02FF019C030F01AC031F01BC06F
:100FC60032F02FC00EF030C00FF031C010F032C03A
:100FD60011F0FF0E126E0A0ECEEC04F01200045051
:100FE600D8B405D0015002100310D8A40CD0000EBE
:100FF600016E000E026E000E036E1200042AD890D7
:10100600033202320132000E0114066E000E021483
:10101600076EFE0E0314086E065007100810D8B4AB
:101026000CD0ECD7042A010E0126000E0222000E77
:101036000322D890033202320132000E0114066EEA
:10104600000E0214076EFF0E0314086E06500710FA
:101056000810D8B406D0E6D70406D8900136023672
:10106600033602BE03D0020E0460F6D704A0029E29
:10107600D8900432045003120550D8A4038E01C040
:1010860001F002C002F003C003F01200000E096E68
:10109600000E0A6E000E0B6E000E0C6E055006104A
:1010A60007100810D8B42AD0010E0D6E06D0D890BD
:1010B60005360636073608360D2A08AEF8D7D89014
:1010C60009360A360B360C360550015C06500258B6
:1010D6000750035808500458D8A009D00550015E9F
:1010E6000650025A0750035A0850045A0980D890ED
:1010F60008320732063205320D2EE1D709C001F05B
:101106000AC002F00BC003F00CC004F01200000E7F
:101116000001E16F20EE4EF010EEB2F02E0EDBCFA6
:10112600E3FFE806FCE2800E176E250E186E000E31
:10113600196E000E1A6EC8EC09F0010E336E060E1B
:10114600346EB20E356E000E366E1BEC03F0E1C047
:1011560005F0066AB20E076E000E086E30EC09F056
:10116600E1C003F0046A800E056E000E066E8FEC79
:1011760009F01B0E336E060E346E800E356E000EB1
:10118600366E1BEC03F0FFD71150101006E1600E0F
:101196000E5C090E0F58D8A02DD011502BE10E046D
:1011A600C20E0F58010E1058D8B024D0000E016E92
:1011B6002D0E026E310E036E010E046E0EC012F07D
:1011C6000FC013F010C014F011C015F0060ED89021
:1011D6001236133614361536E82EF9D712C005F036
:1011E60013C006F014C007F015C008F049EC08F06B
:1011F600010401D01F0E166E16C0AFFF12008E0E30
:10120600116E06D0D8900C320B320A320932112AEE
:10121600000E09140D6E000E0A140E6E000E0B144D
:101226000F6EFF0E0C14106E0D500E100F101010D6
:10123600D8A4E8D709C001F00AC002F00BC003F039
:1012460011C004F0000E056EF2EC07F001C009F0C3
:1012560002C00AF003C00BF0120005C001F006C080
:1012660002F007C0D9FF08C0DAFFDF50036E4AEC70
:1012760009F0074A082A054A062A2FEEFFF007500A
:10128600D9260850DA22DF50D8B41200E6D7A6B223
:10129600FED701C0A9FF03C0A8FF000EF2BE010ED3
:1012A600046EF29EA684550EA76EAA0EA76EA6829F
:1012B600A69404A002D0F28E1200F29E1200576588
:1012C6006C636F6D6520746F205069632070726F58
:1012D6006772616D6D696E67206279204578706C02
:0D12E6006F726520456D626564646564008B
:1012F400C40EF66E120EF76E000EF86E00EE4EF08F
:1013040010EE2FF00900F5CFEEFFE550E150FAE1C1
:10131400000EF86E00018AEF08F003C001F004C06B
:1013240002F0D9EC09F0076E05C0D9FF06C0DAFF58
:1013340007C0DFFF054A062A034A042A0750D8B427
:101344001200EBD709D002C0D9FF03C0DAFFDF5087
:10135400E1EC09F0024A032A02C0D9FF03C0DAFF14
:10136400DF50D8B41200EFD7125013101410D8B4B1
:1013740006D0000E121A000E131A800E141A12C090
:1013840012F013C013F014C014F01200800E946E07
:10139400200EAC6E900EAB6E17C00EF018C00FF09E
:1013A40019C010F01AC011F0C7EC08F01200A6A280
:1013B400A6B0FDD701C0A9FFA680A8501200016EF7
:0C13C4009EA8FED79E9801C0ADFF12004D
:020000040020DA
:08000000FFFFFFFFFFFFFFFF00
:020000040030CA
:0E000000FF02111EFF8180FF0FC00FE00F40B6
:00000001FF
