:04000000CDEF35F01B
:1068E00080C090D09EAAFED79E9AAE501200000E95
:1068F000C26E000EC16E800EC06E1200016E9EA8A8
:10690000FED79E9801C0ADFF1200010E65EC35F078
:10691000000E1FEC35F01200A6A2A6B0FDD701C0F4
:10692000A9FFA680A850120003D00106D8A0020635
:1069300001500210D8B41200F8D709D0010E026E2F
:106940005E0E016E94EC34F00306D8A004060350EA
:106950000410D8B41200F2D777EC34F0DC0E2C6EB1
:106960007B0E2D6E000E4CEC35F003C02EF004C0F3
:106970002FF0BBEC3BF0F2D7800E946E200EAC6E85
:10698000900EAB6E17C00EF018C00FF019C010F0CB
:106990001AC011F0DAEC36F012000D6E4D505A5C50
:1069A000D8B003D00A0E0D18D8B4F5EC34F00A0EA6
:1069B0000D18D8B412000D507EEC35F05A2A120092
:1069C0000AD002C0F6FF03C0F7FF0800F5507EECC6
:1069D00034F0024A032A02C0F6FF03C0F7FF0800A2
:1069E000F5500009D8B41200ECD75B2A000E5A6E9D
:1069F0004C505B5CD8A002D0000E5B6E5B50010D6A
:106A00005C0EF324D96E000EF420DA6EDF5065ECD4
:106A100035F012000AD00EC0F6FF0FC0F7FF0800D5
:106A2000F550CDEC34F00E4A0F2A0EC0F6FF0FC021
:106A3000F7FF0800F5500009D8B41200ECD70D6E2E
:106A40004C500D5CD8B01200000E5A6E0DC05BF0B9
:106A50000D50010D5C0EF324D96E000EF420DA6E99
:106A6000DF5065EC35F01200A6B2FED701C0A9FFD9
:106A700003C0A8FF000EF2BE010E046EF29EA684B3
:106A8000550EA76EAA0EA76EA682A69404A002D0E9
:106A9000F28E1200F29E1200076E0744E846FC0BCD
:106AA000C26EC280000E026E0A0E016E94EC34F0CB
:106AB000C282C2B2FED7C450066E056AC350052416
:106AC000036E000E0620046E12000C6EDFEC37F031
:106AD000080E4E18D8A404D00C5031EC36F008D073
:106AE0000C500BEC36F097EC35F00C38F00B0C6ECC
:106AF0000C500BEC36F097EC35F012000C6EDFEC1E
:106B000037F0080E4E18D8A404D00C5031EC36F0F3
:106B100008D00C500BEC36F0B2EC35F00C38F00B22
:106B20000C6E0C500BEC36F0B2EC35F01200000E8F
:106B3000066E4F5023EC3AF0000E066E505023ECD8
:106B40003AF0010E066E515023EC3AF0000E026E40
:106B50000A0E016E94EC34F0000E066E515023ECD8
:106B60003AF01200010E066E4F5023EC3AF0000E80
:106B7000066E505023EC3AF0010E066E515023EC95
:106B80003AF0000E026E0A0E016E94EC34F0000E24
:106B9000066E515023EC3AF0120000EE4CF0100E4D
:106BA000EE6AE806FDE1E00EF66E680EF76E000E86
:106BB000F86E00EE5CF010EE04F00900F5CFEEFF89
:106BC000E550E150FAE1000EF86E0001FEEF38F0FA
:106BD000090E066E0A0E076EFF0E086EFF0E096E96
:106BE000FF0E0A6EFF0E0B6E0C0E0C6E0D0E0D6E70
:106BF0000E0E0E6E0F0E0F6E080E35EC38F0100EE6
:106C00000E6E020EADEC36F0AD0E0E6E7B0E0F6EFC
:106C10000AEC35F0FFD70B6E0BA802D0010E01D0A5
:106C2000000E066E565023EC3AF00BAA02D0010E6D
:106C300001D0000E066E575023EC3AF00BAC02D098
:106C4000010E01D0000E066E585023EC3AF00BAE48
:106C500002D0010E01D0000E066E595023EC3AF01E
:106C600012000B6E0BA002D0010E01D0000E066EBA
:106C7000525023EC3AF00BA202D0010E01D0000ECC
:106C8000066E535023EC3AF00BA402D0010E01D053
:106C9000000E066E545023EC3AF00BA602D0010E03
:106CA00001D0000E066E555023EC3AF01200000E93
:106CB000016E180E73EC39F0000E016E190E73ECB4
:106CC00039F0010E016E1A0E73EC39F0010E016EEF
:106CD0001B0E73EC39F0770E026E7B0E036EE0EC48
:106CE00034F01A0E95EC38F0066E180E23EC3AF0DC
:106CF0001B0E95EC38F0066E190E23EC3AF0F1D726
:106D0000300E0BEC36F097EC35F0000E046E640E8E
:106D1000036E9DEC34F0300E0BEC36F097EC35F052
:106D2000000E026EC80E016E94EC34F0300E0BECC7
:106D300036F097EC35F0000E026EC80E016E94EC42
:106D400034F0200E0BEC36F097EC35F0000E026EAE
:106D5000C80E016E94EC34F012000F6E0EC04DF0B0
:106D60000FC04CF0020E0F6408D00E500F0B900FA6
:106D70005E6E0E500F0BD00F5F6E000E046E640E31
:106D8000036E9DEC34F0080E4E18D8A404D0380ED3
:106D900065EC35F009D0040E4E18D8A405D080EC6F
:106DA00036F0280E65EC35F00E0E65EC35F085EC0E
:106DB00034F012001150101006E1600E0E5C090E46
:106DC0000F58D8A02DD011502BE10E04C20E0F5831
:106DD000010E1058D8B024D0000E016E2D0E026E98
:106DE000310E036E010E046E0EC012F00FC013F0D0
:106DF00010C014F011C015F0060ED89012361336DC
:106E000014361536E82EF9D712C005F013C006F077
:106E100014C007F015C008F052EC37F0010401D09F
:106E20001F0E166E16C0AFFF1200000E486E000E49
:106E3000476E000E4A6E410E496E320E2C6E7B0E6E
:106E40002D6EBBEC3BF0C50E2C6E7B0E2D6E49C03B
:106E50002EF04AC02FF0BBEC3BF047C001F048C019
:106E600002F049C003F034EC35F047C001F048C0EF
:106E700002F08CEC34F0446E4450456E466AEE0EDF
:106E80002C6E7B0E2D6E45C02EF046C02FF0BBEC55
:106E90003BF0494A4A2A4A5004E15B0E495CD8A0BB
:106EA000D2D7FFD7000E096E000E0A6E000E0B6ED1
:106EB000000E0C6E0550061007100810D8B42AD02A
:106EC000010E0D6E06D0D890053606360736083608
:106ED0000D2A08AEF8D7D89009360A360B360C368C
:106EE0000550015C065002580750035808500458DA
:106EF000D8A009D00550015E0650025A0750035A27
:106F00000850045A0980D8900832073206320532F8
:106F10000D2EE1D709C001F00AC002F00BC003F04A
:106F20000CC004F01200000E926E000E936E000E64
:106F3000946E000E956E000E966E80688168826871
:106F400083688468010E046EF40E036E9DEC34F0C9
:106F5000000E806E000E816E000E826E000E836E3B
:106F60008468010E046EF40E036E9DEC34F0000E86
:106F7000086E010E076E000E066E000E056E06BE50
:106F800006D00650DAE1080E055CD8B0D6D707C0A7
:106F900080FF07C081FF07C082FF07C083FF07C0D3
:106FA00084FFD8900734076E0834086E000E046E14
:106FB000C80E036E9DEC34F0054A062AE0D750282F
:106FC000D8B44CD0010E016E595073EC39F0000E5C
:106FD000066E4F5023EC3AF0010E066E505023EC33
:106FE0003AF0000E066E515023EC3AF0000E026E9D
:106FF0000A0E016E94EC34F0010E066E515023EC33
:107000003AF0000E026E0A0E016E94EC34F0595004
:1070100095EC38F00B6E040E4E18D8A416D0000E66
:10702000066E515023EC3AF0000E026E0A0E016E0D
:1070300094EC34F0010E066E515023EC3AF0000E41
:10704000026E0A0E016E94EC34F00B50D8A4C9D72E
:10705000000E016E595073EC39F01200000E046EF0
:10706000010E036E9DEC34F01200106E10C04FF054
:1070700006C050F007C051F008C052F009C053F0EC
:107080000AC054F00BC055F00CC056F00DC057F0BC
:107090000EC058F00FC059F00828D8B409D00928FC
:1070A000D8B406D00A28D8B403D00B28D8A403D06B
:1070B000040E4E6E16D0080E4E6E000E016E085075
:1070C00073EC39F0000E016E095073EC39F0000ECC
:1070D000016E0A5073EC39F0000E016E0B5073EC28
:1070E00039F0000E016E105073EC39F0000E016E95
:1070F000065073EC39F0000E016E075073EC39F056
:10710000000E016E0C5073EC39F0000E016E0D5044
:1071100073EC39F0000E016E0E5073EC39F0000E76
:10712000016E0F5073EC39F01200056E000E046E04
:107130000538E8461F0B036E0550070B056E4CD053
:1071400005C001F0010E026E012A02D0D89002366D
:10715000012EFCD7025080140009D8B43BD029D0AE
:10716000046E4AD005C001F0010E026E012A02D061
:10717000D8900236012EFCD70250811428D005C0C9
:1071800001F0010E026E012A02D0D8900236012EC3
:10719000FCD7025082141BD005C001F0010E026E14
:1071A000012A02D0D8900236012EFCD70250831457
:1071B0000ED0010ED5D705C001F0010E026E012AD6
:1071C00002D0D8900236012EFCD702508414000958
:1071D000D8A4EFD7000EC4D70350000AD8B4B0D754
:1071E000010AD8B4BFD7030AD8B4C9D7010AD8B4A2
:1071F000D3D7070AD8B4DFD704501200010E016EAE
:107200001A0E73EC39F0010E016E1B0E73EC39F09F
:107210001A0E95EC38F0E806D8A431D01B0E95EC88
:1072200038F0E806D8A42BD0000E016E180E73ECCF
:1072300039F0000E016E190E73EC39F0010E066E76
:10724000180E23EC3AF0010E066E190E23EC3AF0FC
:10725000000E046EC80E036E9DEC34F0000E066E38
:10726000180E23EC3AF0000E066E190E23EC3AF0DD
:10727000000E046EC80E036E9DEC34F0DFD7800E56
:10728000176E250E186E000E196E000E1A6EBCECED
:1072900034F0AF0E2C6E7A0E2D6EBBEC3BF072EC20
:1072A00034F04B6E0FD093EC37F0F9D7E8EC35F0B3
:1072B000F6D757EC36F0F3D7ACEC34F0F0D715EC4A
:1072C00037F0EDD74B50310AD8B4EDD7030AD8B414
:1072D000EDD7010AD8B4EDD7070AD8B4EDD7010A23
:1072E000D8B4EDD7DCD7056E0538E8461F0B046E21
:1072F0000550070B056E96D00150D8B40DD005C0CF
:1073000002F0010E036E022A02D0D8900336022E3C
:10731000FCD703509212120005C002F0010E036E5A
:10732000022A02D0D8900336022EFCD70350FF0A5F
:10733000921612000150D8B40DD005C002F0010E13
:10734000036E022A02D0D8900336022EFCD70350D7
:107350009312120005C002F0010E036E022A02D041
:10736000D8900336022EFCD70350FF0A9316120062
:107370000150D8B40DD005C002F0010E036E022AF0
:1073800002D0D8900336022EFCD70350941212007C
:1073900005C002F0010E036E022A02D0D890033617
:1073A000022EFCD70350FF0A941612000150D8B4E5
:1073B0000DD005C002F0010E036E022A02D0D89053
:1073C0000336022EFCD703509512120005C002F0BE
:1073D000010E036E022A02D0D8900336022EFCD78B
:1073E0000350FF0A951612000150D8B40DD005C005
:1073F00002F0010E036E022A02D0D8900336022E4C
:10740000FCD703509612120005C002F0010E036E65
:10741000022A02D0D8900336022EFCD70350FF0A6E
:10742000961612000450000AD8B466D7010AD8B4E0
:1074300081D7030AD8B49CD7010AD8B4B7D7070AB2
:10744000D8A41200D1D70A6E0A38E8461F0B096E7D
:107450000A50070B0A6E96D00650D8B40DD00AC059
:1074600007F0010E086E072A02D0D8900836072EC2
:10747000FCD70850891212000AC007F0010E086EEE
:10748000072A02D0D8900836072EFCD70850FF0AEA
:10749000891612000650D8B40DD00AC007F0010EAC
:1074A000086E072A02D0D8900836072EFCD708505D
:1074B0008A1212000AC007F0010E086E072A02D0D5
:1074C000D8900836072EFCD70850FF0A8A161200FB
:1074D0000650D8B40DD00AC007F0010E086E072A76
:1074E00002D0D8900836072EFCD708508B12120015
:1074F0000AC007F0010E086E072A02D0D89008369D
:10750000072EFCD70850FF0A8B1612000650D8B47D
:107510000DD00AC007F0010E086E072A02D0D890DD
:107520000836072EFCD708508C1212000AC007F04C
:10753000010E086E072A02D0D8900836072EFCD715
:107540000850FF0A8C1612000650D8B40DD00AC09D
:1075500007F0010E086E072A02D0D8900836072ED1
:10756000FCD708508D1212000AC007F0010E086EF9
:10757000072A02D0D8900836072EFCD70850FF0AF9
:107580008D1612000950000AD8B466D7010AD8B483
:1075900081D7030AD8B49CD7010AD8B4B7D7070A51
:1075A000D8A41200D1D72A6E000E2B6E020E2A1814
:1075B000D8B434D037D012C013F0FF0E1326010E0A
:1075C000146E000E156E132A03D0D890143615369B
:1075D000132EFBD714C016F015C017F0000E17BEFF
:1075E000FF0E186E196E0E5016141A6E0F501714E7
:1075F0001B6E105018141C6E115019141D6E1A5069
:107600001B101C101D10D8B402D0010E01D0000EAA
:107610002B6E2B50300F7EEC34F012061250D8B483
:107620001200C9D70E500F1010101110D8A404D09A
:10763000300E7EEC34F01200000E2B6E4DD00E504A
:107640000F1010101110D8B435D02B50010D1E0E94
:10765000F324D96E000EF420DA6E0EC001F00FC0D4
:1076600002F010C003F011C004F02A50056E066A43
:10767000076A086A52EC37F001502A02F3500008FA
:107680000E24DF6E0EC001F00FC002F010C003F038
:1076900011C004F02A50056E066A076A086A52ECA7
:1076A00037F001C00EF002C00FF003C010F004C0AC
:1076B00011F011D01228D8B45AD00A0E126401D099
:1076C00056D02B50010D1E0EF324D96E000EF4205F
:1076D000DA6E000EDF6E2B2A12502B5CD8B047D02A
:1076E000AED7FF0E136EFF0E146E2B50156E166A7A
:1076F00013501526145016221E0E1524D96E000E96
:107700001620DA6E0A0EDF6015D0FF0E136EFF0E24
:10771000146E2B50156E166A13501526145016222F
:107720001E0E1524D96E000E1620DA6EDF50176E6D
:10773000300E14D0FF0E136EFF0E146E2B50156E0C
:10774000166A13501526145016221E0E1524D96ED3
:10775000000E1620DA6EDF50176E370E1724286ED3
:10776000296A000E292228507EEC34F02B062B507B
:10777000D8B41200B6D72E0E426E000E436E2CC047
:107780003EF02DC03FF089D13EC0F6FF3FC0F7FF6D
:107790000800F5CF40F0250E4018D8A479D13E4A14
:1077A0003F2A3EC0F6FF3FC0F7FF0800F5CF40F08C
:1077B0002F0E40641CD03A0E406019D0000E416E6E
:1077C0000FD041500A0DF3504024D00F416E3E4A75
:1077D0003F2A3EC0F6FF3FC0F7FF0800F5CF40F05C
:1077E0002F0E406426D1390E4064EBD722D1416878
:1077F00020D142C0D9FF43C0DAFFDF50406E020EF5
:107800004226000E432240507EEC34F044D142C068
:10781000D9FF43C0DAFFDECF36F0DDCF37F0020EFE
:107820004226000E432237AE07D0366C371ED8B042
:10783000372A2D0E7EEC34F036C00EF037C00FF034
:10784000000E0FBEFF0E106E116E41C012F00A0E38
:10785000D3EC3AF020D142C0D9FF43C0DAFFDECFEB
:1078600032F0DECF33F0DECF34F0DECF35F0040E71
:107870004226000E432235AE0BD0351E341E331E79
:10788000326C000E3322342235222D0E7EEC34F081
:1078900032C00EF033C00FF034C010F035C011F01C
:1078A00041C012F00A0ED3EC3AF0F5D042C0D9FF35
:1078B00043C0DAFFDECF3CF0DDCF3DF0020E4226C2
:1078C000000E43223CC00EF03DC00FF0106A116A5A
:1078D00041C012F00A0ED3EC3AF0DDD042C0D9FF1D
:1078E00043C0DAFFDECF38F0DECF39F0DECF3AF03A
:1078F000DECF3BF0040E4226000E432238C00EF0CD
:1079000039C00FF03AC010F03BC011F041C012F086
:107910000A0ED3EC3AF0BFD042C0D9FF43C0DAFF21
:10792000DECF3CF0DDCF3DF0020E4226000E4322BA
:107930003CC00EF03DC00FF0106A116A41C012F059
:10794000100ED3EC3AF0A7D042C0D9FF43C0DAFF03
:10795000DECF38F0DECF39F0DECF3AF0DECF3BF0CD
:10796000040E4226000E432238C00EF039C00FF03C
:107970003AC010F03BC011F041C012F0100ED3EC31
:107980003AF089D042C0D9FF43C0DAFFDECF3CF0E5
:10799000DDCF3DF0020E4226000E43224128D8A43E
:1079A00002D0100E416E3CC00EF03DC00FF0106AC8
:1079B000116A41C012F0020ED3EC3AF06CD042C012
:1079C000D9FF43C0DAFFDECF38F0DECF39F0DECFAB
:1079D0003AF0DECF3BF0040E4226000E432241284F
:1079E000D8A402D0200E416E38C00EF039C00FF07E
:1079F0003AC010F03BC011F041C012F0020ED3ECBF
:107A00003AF049D042C0D9FF43C0DAFFDECF30F0B0
:107A1000DDCF31F0020E4226000E432230C002F0CC
:107A200031C003F0E0EC34F036D0250E7EEC34F0BB
:107A300032D04050250AD8B4F8D7670AD8B4BFD797
:107A4000010AD8B4D6D6070AD8B405D7020AD8B4E2
:107A500022D0150AD8B4D6D7060AD8B43FD70D0A13
:107A6000D8B472D73A0AD8B48DD7010AD8B4C1D6DF
:107A7000070AD8B4CCD6020AD8B40DD0150AD8B4A7
:107A8000C1D7060AD8B412D70D0AD8B445D703D047
:107A900040507EEC34F03E4A3F2A3EC0F6FF3FC0E5
:107AA000F7FF0800F5500009D8B412006DD6000A9F
:107AB0000D0A0D537461727465722050494320742D
:107AC000657374204D656E750A0D20312E4C65640A
:107AD00020746573740A0D20322E4C636420746523
:107AE00073740A0D20332E537769746368207465AC
:107AF00073740A0D20342E41646320546573740A34
:107B00000D20352E456570726F6D2054657374209D
:107B10000A0D53656C656374204F6E65206F662097
:107B20007468652061626F7665206F7074696F6E2E
:107B300073000A0D0A0D496E6275696C7420456503
:107B400070726F6D20546573742E2057726974695A
:107B50006E6720616E642072656164696E672041A2
:107B60002D5A20746F20616E642066726F6D2045FF
:107B70006570726F6D2E000A0A0A0D50726573737C
:107B80002074686520737769746368657320616E1B
:107B900064206F62736572766520746865206F7506
:107BA00074707574206F6E204C6564730045787036
:107BB0006C6F72650A20537461727465722050692B
:107BC000632E2E2E000A0D456570726F6D20577260
:107BD0006974653A20256320202020000A0D414465
:107BE00043302076616C75653D2025346400456521
:0F7BF00070726F6D20526561643A20256300004A
:020000040020DA
:08000000FFFFFFFFFFFFFFFF00
:020000040030CA
:0E000000FF02111EFF8180FF0FC00FE00F40B6
:00000001FF
