:04000000E4EF0CF02D
:1006000000526563656976656420537472696E672C
:100610003A257320202073697A653D2532640A0DDE
:100620000073656E6420646174612066726F6D2072
:100630002073657269616C207465726D696E616C9E
:10064000007374723A25732073697A653D253264AC
:1006500000002E0E446E000E456E2CC040F02DC0E2
:1006600041F089D140C0F6FF41C0F7FF0800F5CF47
:1006700042F0250E4218D8A479D1404A412A40C000
:10068000F6FF41C0F7FF0800F5CF42F02F0E42649D
:100690001CD03A0E426019D0000E436E0FD043506A
:1006A0000A0DF3504224D00F436E404A412A40C005
:1006B000F6FF41C0F7FF0800F5CF42F02F0E42646D
:1006C00026D1390E4264EBD722D1436820D144C0F1
:1006D000D9FF45C0DAFFDF50426E020E4426000EFD
:1006E00045224250B0EC0DF044D144C0D9FF45C082
:1006F000DAFFDECF38F0DDCF39F0020E4426000EEF
:10070000452239AE07D0386C391ED8B0392A2D0EA3
:10071000B0EC0DF038C00EF039C00FF0000E0FBE77
:10072000FF0E106E116E43C012F00A0E61EC06F05F
:1007300020D144C0D9FF45C0DAFFDECF34F0DECF90
:1007400035F0DECF36F0DECF37F0040E4426000E53
:10075000452237AE0BD0371E361E351E346C000EC8
:100760003522362237222D0EB0EC0DF034C00EF0BB
:1007700035C00FF036C010F037C011F043C012F092
:100780000A0E61EC06F0F5D044C0D9FF45C0DAFF8F
:10079000DECF3EF0DDCF3FF0020E4426000E4522B4
:1007A0003EC00EF03FC00FF0106A116A43C012F055
:1007B0000A0E61EC06F0DDD044C0D9FF45C0DAFF77
:1007C000DECF3AF0DECF3BF0DECF3CF0DECF3DF0C7
:1007D000040E4426000E45223AC00EF03BC00FF036
:1007E0003CC010F03DC011F043C012F00A0E61ECA5
:1007F00006F0BFD044C0D9FF45C0DAFFDECF3EF0DF
:10080000DDCF3FF0020E4426000E45223EC00EF022
:100810003FC00FF0106A116A43C012F0100E61EC75
:1008200006F0A7D044C0D9FF45C0DAFFDECF3AF0CA
:10083000DECF3BF0DECF3CF0DECF3DF0040E4426B1
:10084000000E45223AC00EF03BC00FF03CC010F045
:100850003DC011F043C012F0100E61EC06F089D0DB
:1008600044C0D9FF45C0DAFFDECF3EF0DDCF3FF018
:10087000020E4426000E45224328D8A402D0100EB2
:10088000436E3EC00EF03FC00FF0106A116A43C0C5
:1008900012F0020E61EC06F06CD044C0D9FF45C0E6
:1008A000DAFFDECF3AF0DECF3BF0DECF3CF0DECF3A
:1008B0003DF0040E4426000E45224328D8A402D061
:1008C000200E436E3AC00EF03BC00FF03CC010F05B
:1008D0003DC011F043C012F0020E61EC06F049D0A9
:1008E00044C0D9FF45C0DAFFDECF32F0DDCF33F0B0
:1008F000020E4426000E452232C002F033C003F03F
:1009000075EC0DF036D0250EB0EC0DF032D0425023
:10091000250AD8B4F8D7670AD8B4BFD7010AD8B423
:10092000D6D6070AD8B405D7020AD8B422D0150AF9
:10093000D8B4D6D7060AD8B43FD70D0AD8B472D7E0
:100940003A0AD8B48DD7010AD8B4C1D6070AD8B4A8
:10095000CCD6020AD8B40DD0150AD8B4C1D7060A2D
:10096000D8B412D70D0AD8B445D703D04250B0EC52
:100970000DF0404A412A40C0F6FF41C0F7FF080091
:10098000F5500009D8B412006DD62E0E446E000E3C
:10099000456E2CC040F02DC041F089D140C0F6FF1B
:1009A00041C0F7FF0800F5CF42F0250E4218D8A449
:1009B00079D1404A412A40C0F6FF41C0F7FF080004
:1009C000F5CF42F02F0E42641CD03A0E426019D08F
:1009D000000E436E0FD043500A0DF3504224D00F47
:1009E000436E404A412A40C0F6FF41C0F7FF08006D
:1009F000F5CF42F02F0E426426D1390E4264EBD778
:100A000022D1436820D144C0D9FF45C0DAFFDF506E
:100A1000426E020E4426000E4522425061EC0DF05B
:100A200044D144C0D9FF45C0DAFFDECF38F0DDCF76
:100A300039F0020E4426000E452239AE07D0386C3C
:100A4000391ED8B0392A2D0E61EC0DF038C00EF0E9
:100A500039C00FF0000E0FBEFF0E106E116E43C0B6
:100A600012F00A0E49EC07F020D144C0D9FF45C06E
:100A7000DAFFDECF34F0DECF35F0DECF36F0DECF7A
:100A800037F0040E4426000E452237AE0BD0371E39
:100A9000361E351E346C000E3522362237222D0EBE
:100AA00061EC0DF034C00EF035C00FF036C010F020
:100AB00037C011F043C012F00A0E49EC07F0F5D030
:100AC00044C0D9FF45C0DAFFDECF3EF0DDCF3FF0B6
:100AD000020E4426000E45223EC00EF03FC00FF02D
:100AE000106A116A43C012F00A0E49EC07F0DDD01B
:100AF00044C0D9FF45C0DAFFDECF3AF0DECF3BF08D
:100B0000DECF3CF0DECF3DF0040E4426000E452241
:100B10003AC00EF03BC00FF03CC010F03DC011F0E9
:100B200043C012F00A0E49EC07F0BFD044C0D9FF11
:100B300045C0DAFFDECF3EF0DDCF3FF0020E4426A7
:100B4000000E45223EC00EF03FC00FF0106A116A41
:100B500043C012F0100E49EC07F0A7D044C0D9FFF3
:100B600045C0DAFFDECF3AF0DECF3BF0DECF3CF01F
:100B7000DECF3DF0040E4426000E45223AC00EF0B2
:100B80003BC00FF03CC010F03DC011F043C012F06C
:100B9000100E49EC07F089D044C0D9FF45C0DAFFF8
:100BA000DECF3EF0DDCF3FF0020E4426000E4522A0
:100BB0004328D8A402D0100E436E3EC00EF03FC0B2
:100BC0000FF0106A116A43C012F0020E49EC07F0F0
:100BD0006CD044C0D9FF45C0DAFFDECF3AF0DECF9B
:100BE0003BF0DECF3CF0DECF3DF0040E4426000E9D
:100BF00045224328D8A402D0100E436E3AC00EF00E
:100C00003BC00FF03CC010F03DC011F043C012F0EB
:100C1000020E49EC07F049D044C0D9FF45C0DAFFC5
:100C2000DECF32F0DDCF33F0020E4426000E452237
:100C300032C009F033C00AF07DEC0CF036D0250E3E
:100C400061EC0DF032D04250250AD8B4F8D7670ACB
:100C5000D8B4BFD7010AD8B4D6D6070AD8B405D7B6
:100C6000020AD8B422D0150AD8B4D6D7060AD8B406
:100C70003FD70D0AD8B472D73A0AD8B48DD7010A33
:100C8000D8B4C1D6070AD8B4CCD6020AD8B40DD08D
:100C9000150AD8B4C1D7060AD8B412D70D0AD8B4E9
:100CA00045D703D0425061EC0DF0404A412A40C084
:100CB000F6FF41C0F7FF0800F5500009D8B4120054
:100CC0006DD62A6E000E2B6E020E2A18D8B434D0C0
:100CD00037D012C013F0FF0E1326010E146E000E53
:100CE000156E132A03D0D89014361536132EFBD761
:100CF00014C016F015C017F0000E17BEFF0E186EC8
:100D0000196E0E5016141A6E0F5017141B6E1050D9
:100D100018141C6E115019141D6E1A501B101C1043
:100D20001D10D8B402D0010E01D0000E2B6E2B5036
:100D3000300FB0EC0DF012061250D8B41200C9D723
:100D40000E500F1010101110D8A404D0300EB0ECBB
:100D50000DF01200000E2B6E4DD00E500F10101023
:100D60001110D8B435D02B50010D1E0EF324D96EBE
:100D7000000EF420DA6E0EC001F00FC002F010C0B9
:100D800003F011C004F02A50056E066A076A086A6B
:100D90001DEC0BF001502A02F35000080E24DF6E08
:100DA0000EC001F00FC002F010C003F011C004F03B
:100DB0002A50056E066A076A086A1DEC0BF001C02E
:100DC0000EF002C00FF003C010F004C011F011D0FB
:100DD0001228D8B45AD00A0E126401D056D02B5023
:100DE000010D1E0EF324D96E000EF420DA6E000EF3
:100DF000DF6E2B2A12502B5CD8B047D0AED7FF0E37
:100E0000136EFF0E146E2B50156E166A13501526B6
:100E1000145016221E0E1524D96E000E1620DA6EFE
:100E20000A0EDF6015D0FF0E136EFF0E146E2B50EE
:100E3000156E166A13501526145016221E0E152410
:100E4000D96E000E1620DA6EDF50176E300E14D0F9
:100E5000FF0E136EFF0E146E2B50156E166A135094
:100E60001526145016221E0E1524D96E000E1620BB
:100E7000DA6EDF50176E370E1724286E296A000EBF
:100E800029222850B0EC0DF02B062B50D8B41200BC
:100E9000B6D72A6E000E2B6E020E2A18D8B434D0A4
:100EA00037D012C013F0FF0E1326010E146E000E81
:100EB000156E132A03D0D89014361536132EFBD78F
:100EC00014C016F015C017F0000E17BEFF0E186EF6
:100ED000196E0E5016141A6E0F5017141B6E105008
:100EE00018141C6E115019141D6E1A501B101C1072
:100EF0001D10D8B402D0010E01D0000E2B6E2B5065
:100F0000300F61EC0DF012061250D8B41200C9D7A0
:100F10000E500F1010101110D8A404D0300E61EC38
:100F20000DF01200000E2B6E4DD00E500F10101051
:100F30001110D8B435D02B50010D1E0EF324D96EEC
:100F4000000EF420DA6E0EC001F00FC002F010C0E7
:100F500003F011C004F02A50056E066A076A086A99
:100F60001DEC0BF001502A02F35000080E24DF6E36
:100F70000EC001F00FC002F010C003F011C004F069
:100F80002A50056E066A076A086A1DEC0BF001C05C
:100F90000EF002C00FF003C010F004C011F011D029
:100FA0001228D8B45AD00A0E126401D056D02B5051
:100FB000010D1E0EF324D96E000EF420DA6E000E21
:100FC000DF6E2B2A12502B5CD8B047D0AED7FF0E65
:100FD000136EFF0E146E2B50156E166A13501526E5
:100FE000145016221E0E1524D96E000E1620DA6E2D
:100FF0000A0EDF6015D0FF0E136EFF0E146E2B501D
:10100000156E166A13501526145016221E0E15243E
:10101000D96E000E1620DA6EDF50176E300E14D027
:10102000FF0E136EFF0E146E2B50156E166A1350C2
:101030001526145016221E0E1524D96E000E1620E9
:10104000DA6EDF50176E370E1724286E296A000EED
:101050002922285061EC0DF02B062B50D8B4120039
:10106000B6D7056E0538E8461F0B046E0550070B12
:10107000056E96D00150D8B40DD005C002F0010E17
:10108000036E022A02D0D8900336022EFCD70350FA
:101090008912120005C002F0010E036E022A02D06E
:1010A000D8900336022EFCD70350FF0A891612008F
:1010B0000150D8B40DD005C002F0010E036E022A13
:1010C00002D0D8900336022EFCD703508A121200A9
:1010D00005C002F0010E036E022A02D0D89003363A
:1010E000022EFCD70350FF0A8A1612000150D8B412
:1010F0000DD005C002F0010E036E022A02D0D89076
:101100000336022EFCD703508B12120005C002F0EA
:10111000010E036E022A02D0D8900336022EFCD7AD
:101120000350FF0A8B1612000150D8B40DD005C031
:1011300002F0010E036E022A02D0D8900336022E6E
:10114000FCD703508C12120005C002F0010E036E92
:10115000022A02D0D8900336022EFCD70350FF0A91
:101160008C1612000150D8B40DD005C002F0010E4B
:10117000036E022A02D0D8900336022EFCD7035009
:101180008D12120005C002F0010E036E022A02D079
:10119000D8900336022EFCD70350FF0A8D1612009A
:1011A0000450000AD8B466D7010AD8B481D7030A1C
:1011B000D8B49CD7010AD8B4B7D7070AD8A412006C
:1011C000D1D7056E0538E8461F0B046E0550070B96
:1011D000056E96D00150D8B40DD005C002F0010EB6
:1011E000036E022A02D0D8900336022EFCD7035099
:1011F0009212120005C002F0010E036E022A02D004
:10120000D8900336022EFCD70350FF0A9216120024
:101210000150D8B40DD005C002F0010E036E022AB1
:1012200002D0D8900336022EFCD70350931212003E
:1012300005C002F0010E036E022A02D0D8900336D8
:10124000022EFCD70350FF0A931612000150D8B4A7
:101250000DD005C002F0010E036E022A02D0D89014
:101260000336022EFCD703509412120005C002F080
:10127000010E036E022A02D0D8900336022EFCD74C
:101280000350FF0A941612000150D8B40DD005C0C7
:1012900002F0010E036E022A02D0D8900336022E0D
:1012A000FCD703509512120005C002F0010E036E28
:1012B000022A02D0D8900336022EFCD70350FF0A30
:1012C000951612000150D8B40DD005C002F0010EE1
:1012D000036E022A02D0D8900336022EFCD70350A8
:1012E0009612120005C002F0010E036E022A02D00F
:1012F000D8900336022EFCD70350FF0A9616120030
:101300000450000AD8B466D7010AD8B481D7030ABA
:10131000D8B49CD7010AD8B4B7D7070AD8A412000A
:10132000D1D7056E000E046E0538E8461F0B036E1C
:101330000550070B056E4CD005C001F0010E026E82
:10134000012A02D0D8900236012EFCD70250801418
:101350000009D8B43BD029D0046E4AD005C001F0B2
:10136000010E026E012A02D0D8900236012EFCD75F
:101370000250811428D005C001F0010E026E012A2E
:1013800002D0D8900236012EFCD7025082141BD016
:1013900005C001F0010E026E012A02D0D89002367B
:1013A000012EFCD7025083140ED0010ED5D705C0F4
:1013B00001F0010E026E012A02D0D8900236012EF1
:1013C000FCD7025084140009D8A4EFD7000EC4D76C
:1013D0000350000AD8B4B0D7010AD8B4BFD7030A63
:1013E000D8B4C9D7010AD8B4D3D7070AD8B4DFD73D
:1013F00004501200106E10C083F006C084F007C0C5
:1014000085F008C086F009C087F00AC088F00BC0DC
:1014100089F00CC08AF00DC08BF00EC08CF00FC0AC
:101420008DF00828D8B409D00928D8B406D00A28E5
:10143000D8B403D00B28D8A404D0040E0001826FC6
:1014400017D0080E0001826F000E016E0850E1EC0B
:1014500008F0000E016E0950E1EC08F0000E016E7C
:101460000A50E1EC08F0000E016E0B50E1EC08F0C0
:10147000000E016E1050E1EC08F0000E016E0650F7
:10148000E1EC08F0000E016E0750E1EC08F0000EF0
:10149000016E0C50E1EC08F0000E016E0D50E1EC15
:1014A00008F0000E016E0E50E1EC08F0000E016E27
:1014B0000F50E1EC08F0120000018429D8B456D096
:1014C000010E016E00018D51E1EC08F0000E016E7D
:1014D0000001835131EC08F0010E016E00018451CE
:1014E00031EC08F0000E016E0001855131EC08F07E
:1014F000000E026E0A0E016EA7EC0DF0010E016ED9
:101500000001855131EC08F0000E026E0A0E016EEA
:10151000A7EC0DF000018D5191EC09F0066E040E60
:1015200000018219D8A418D0000E016E0001855167
:1015300031EC08F0000E026E0A0E016EA7EC0DF001
:10154000010E016E0001855131EC08F0000E026EB3
:101550000A0E016EA7EC0DF00650D8A4C3D7000EFA
:10156000016E00018D51E1EC08F01200000E046ED6
:10157000010E036E98EC0DF01200000E7A6E000E54
:10158000796E090E066E0A0E076EFF0E086EFF0ECC
:10159000096EFF0E0A6EFF0E0B6E0C0E0C6E0D0E1A
:1015A0000D6E0E0E0E6E0F0E0F6E080EFAEC09F099
:1015B000100E096E020ECBEC0BF0800E176E250E8E
:1015C000186E000E196E000E1A6E87EC0DF0210ECB
:1015D000096E060E0A6E7DEC0CF0470E026E000ED0
:1015E000036E99EC0BF0466E4650796E7A6A7ABEBD
:1015F000F4D77A5003E17904D8A0EFD7010E2C6E0E
:10160000060E2D6E470E2E6E000E2F6E79C030F036
:101610007AC031F029EC03F0B7EC0DF0410E2C6EDE
:10162000060E2D6E470E2E6E000E2F6E79C030F016
:101630007AC031F0C5EC04F0D0D7000E096E000E70
:101640000A6E000E0B6E000E0C6E05500610071091
:101650000810D8B42AD0010E0D6E06D0D8900536E9
:101660000636073608360D2A08AEF8D7D890093660
:101670000A360B360C360550015C065002580750EE
:10168000035808500458D8A009D00550015E0650F0
:10169000025A0750035A0850045A0980D890083259
:1016A0000732063205320D2EE1D709C001F00AC01B
:1016B00002F00BC003F00CC004F012001150101027
:1016C00006E1600E0E5C090E0F58D8A02DD0115007
:1016D0002BE10E04C20E0F58010E1058D8B024D0C2
:1016E000000E016E2D0E026E310E036E010E046EA1
:1016F0000EC012F00FC013F010C014F011C015F09E
:10170000060ED8901236133614361536E82EF9D751
:1017100012C005F013C006F014C007F015C008F0A1
:101720001DEC0BF0010401D01F0E166E16C0AFFFAA
:101730001200000E046EBEEC0DF0056E0550B0EC0C
:101740000DF00D0E0518D8B404D00A0E0518D8A453
:101750000BD00450010DF3500224D96EF450032035
:10176000DA6E000EDF6E15D0080E0518D8A405D06D
:101770000450D8B402D00406DED70450010DF35053
:101780000224D96EF4500320DA6E05C0DFFF042A6C
:10179000D2D7045012000A6E09C081F00AC080F04E
:1017A000020E0A640AD009500F0B900F0001906FCF
:1017B00009500F0BD00F0001916F000E046E640EE4
:1017C000036E98EC0DF0080E00018219D8A404D025
:1017D000380E1BEC0DF00AD0040E00018219D8A4BB
:1017E00005D0FCEC0BF0280E1BEC0DF00E0E1BECE4
:1017F0000DF0B7EC0DF01200300E53EC0CF0C5EC10
:101800000CF0000E046E640E036E98EC0DF0300EBA
:1018100053EC0CF0C5EC0CF0000E026EC80E016E1D
:10182000A7EC0DF0300E53EC0CF0C5EC0CF0000EF4
:10183000026EC80E016EA7EC0DF0200E53EC0CF0FA
:10184000C5EC0CF0000E026EC80E016EA7EC0DF098
:101850001200066E06A002D0010E01D0000E016E2D
:101860000001865131EC08F006A202D0010E01D031
:10187000000E016E0001875131EC08F006A402D081
:10188000010E01D0000E016E0001885131EC08F00C
:1018900006A602D0010E01D0000E016E0001895192
:1018A00031EC08F01200066E06A802D0010E01D03D
:1018B000000E016E00018A5131EC08F006AA02D038
:1018C000010E01D0000E016E00018B5131EC08F0C9
:1018D00006AC02D0010E01D0000E016E00018C5149
:1018E00031EC08F006AE02D0010E01D0000E016E00
:1018F00000018D5131EC08F0120014D009C0F6FF40
:101900000AC0F7FFF86A050EF76403D00800F55027
:1019100005D0F6CFD9FFF7CFDAFFDF5061EC0DF03D
:10192000094A0A2A09C0F6FF0AC0F7FFF86A050E3D
:10193000F76403D00800F55005D0F6CFD9FFF7CFF4
:10194000DAFFDF500009D8B41200D8D7010E016EBB
:101950000001835131EC08F0000E016E000184514A
:1019600031EC08F0010E016E0001855131EC08F0F8
:10197000000E026E0A0E016EA7EC0DF0000E016E55
:101980000001855131EC08F01200000E016E0001DB
:10199000835131EC08F0000E016E0001845131ECEE
:1019A00008F0010E016E0001855131EC08F0000EC7
:1019B000026E0A0E016EA7EC0DF0000E016E000122
:1019C000855131EC08F0120000EE80F00E0EEE6A48
:1019D000E806FDE17C6A7B6A860EF66E1B0EF76EEA
:1019E000000EF86E00EE8EF010EE04F00900F5CF58
:1019F000EEFFE550E150FAE1000EF86E0001BDEF98
:101A00000AF0076E5CEC0AF0080E00018219D8A4F7
:101A100004D0075029EC0CF008D0075053EC0CF020
:101A2000A6EC0CF00738F00B076E075053EC0CF0E7
:101A3000A6EC0CF01200076E5CEC0AF0080E000138
:101A40008219D8A404D0075029EC0CF008D0075014
:101A500053EC0CF0C5EC0CF00738F00B076E075098
:101A600053EC0CF0C5EC0CF012007C2A000E7B6EDF
:101A7000000180517C5CD8A002D0000E7C6E7C50AE
:101A8000010D8E0EF324D96E000EF420DA6EDF50B5
:101A90001BEC0DF01200086E00018051085CD8B0FC
:101AA0001200000E7B6E08C07CF00850010D8E0EF7
:101AB000F324D96E000EF420DA6EDF501BEC0DF02B
:101AC0001200086E000181517B5CD8B003D00A0E71
:101AD0000818D8B435EC0DF00A0E0818D8B4120066
:101AE000085001EC0DF07B2A120009D002C0D9FF8A
:101AF00003C0DAFFDF50B0EC0DF0024A032A02C047
:101B0000D9FF03C0DAFFDF50D8B41200EFD7800E40
:101B1000946E200EAC6E900EAB6E17C00EF018C017
:101B20000FF019C010F01AC011F05EEC0BF01200AB
:101B300009D0010E026E5E0E016EA7EC0DF00306D9
:101B4000D8A0040603500410D8B41200F2D703D072
:101B50000106D8A0020601500210D8B41200F8D72E
:101B6000016E9EA8FED79E9801C0ADFF1200010E27
:101B70001BEC0DF0000E4BEC0DF012009EAAFED7F0
:0A1B80009E9AAE50120080C090D073
:020000040020DA
:08000000FFFFFFFFFFFFFFFF00
:020000040030CA
:0E000000FF02111EFF8180FF0FC00FE00F40B6
:00000001FF
